:020000040800F2
:10000000100E0020D10100085F1C0008131C00081E
:100010005D1C0008850500084B200008000000005A
:10002000000000000000000000000000B31E0008F7
:100030008705000800000000811C0008311F00082F
:10004000EB010008EB010008EB010008CB1D0008E4
:10005000EB010008EB010008EB010008EB010008D0
:10006000EB010008EB010008EB010008EB010008C0
:10007000EB010008EB010008EB010008EB010008B0
:10008000EB010008EB010008EB010008EB010008A0
:10009000EB010008EB010008EB010008EB01000890
:1000A00000000000EB010008EB010008EB01000874
:1000B00045200008EB010008EB010008EB010008F7
:1000C000EB010008EB010008EB010008EB01000860
:1000D000EB0100084720000849200008EB01000858
:1000E00009060008C91D0008EB010008EB01000823
:1000F000EB01000800F002F800F05AF80AA090E8BE
:10010000000C82448344AAF10107DA4501D100F0D2
:100110004FF8AFF2090EBAE80F0013F0010F18BF45
:10012000FB1A43F001031847A0310000C031000062
:100130000A444FF0000C10F8013B13F0070408BF0D
:1001400010F8014B1D1108BF10F8015B641E05D0AB
:1001500010F8016B641E01F8016BF9D113F0080F60
:100160001EBF10F8014BAD1C0C1B09D16D1E58BFF2
:1001700001F801CBFAD505E014F8016B01F8016B29
:100180006D1EF9D59142D6D370470000002300249C
:1001900000250026103A28BF78C1FBD8520728BF97
:1001A00030C148BF0B6070471FB51FBD10B510BDF3
:1001B00000F069F91146FFF7F7FF01F091FF00F039
:1001C00087F903B4FFF7F2FF03BC01F03FFF000023
:1001D0000948804709480047FEE7FEE7FEE7FEE7DB
:1001E000FEE7FEE7FEE7FEE7FEE7FEE70448054917
:1001F000054A064B70470000B11F0008F5000008D3
:1002000010080020100E0020100A0020100A002004
:10021000704740EA010310B59B070FD1042A0DD3A4
:1002200010C808C9121F9C42F8D020BA19BA8842D7
:1002300001D9012010BD4FF0FF3010BD1AB1D30716
:1002400003D0521C07E0002010BD10F8013B11F84C
:10025000014B1B1B07D110F8013B11F8014B1B1B75
:1002600001D1921EF1D1184610BD10B5431C02E019
:1002700010F8011B71B18107FAD14FF0013202C8A9
:100280008C1A8C4314EAC211F9D0C01A0A0603D0A2
:10029000C01E10BDC01A10BD0A0401D0801E10BDC2
:1002A0000902FCD0401E10BD032A40F2308010F03D
:1002B000030C00F0158011F8013BBCF1020F624401
:1002C00098BF11F801CB00F8013B38BF11F8013B92
:1002D000A2F1040298BF00F801CB38BF00F8013B3F
:1002E00011F0030300F02580083AC0F0088051F8AF
:1002F000043B083A51F804CBA0E80810F5E7121DBA
:100300005CBF51F8043B40F8043BAFF30080D207D8
:1003100024BF11F8013B11F801CB48BF11F8012BA4
:1003200024BF00F8013B00F801CB48BF00F8012BC7
:10033000704710B5203AC0F00B80B1E81850203A51
:10034000A0E81850B1E81850A0E81850BFF4F5AF75
:100350005FEA027C24BFB1E81850A0E8185044BFFF
:1003600018C918C0BDE810405FEA827C24BF51F86C
:10037000043B40F8043B08BF7047D20728BF31F860
:10038000023B48BF11F8012B28BF20F8023B48BFB1
:1003900000F8012B70474FF000020429C0F01280D2
:1003A00010F0030C00F01B80CCF1040CBCF1020F28
:1003B00018BF00F8012BA8BF20F8022BA1EB0C01FD
:1003C00000F00DB85FEAC17C24BF00F8012B00F8F3
:1003D000012B48BF00F8012B70474FF0000200B519
:1003E000134694469646203922BFA0E80C50A0E858
:1003F0000C50B1F12001BFF4F7AF090728BFA0E806
:100400000C5048BF0CC05DF804EB890028BF40F8D1
:10041000042B08BF704748BF20F8022B11F0804F13
:1004200018BF00F8012B704710B5044610F0030FF9
:1004300008BF11F0030F40F015804FF0013E121F6E
:10044000C0F20E8051F8043BA3EB0E0C2CEA030C17
:100450001CEACE1C08BF40F8043BF0D0A1F1040117
:1004600002F10402521E08DB11F8013B002B00F8D8
:10047000013BF7D11146FFF78EFF204610BD7047B4
:10048000704770477047754600F02CF8AE4605007F
:100490006946534620F00700854618B020B5FFF79F
:1004A000A5FEBDE820404FF000064FF000074FF0DA
:1004B00000084FF0000B21F00701AC46ACE8C00982
:1004C000ACE8C009ACE8C009ACE8C0098D4670478B
:1004D00010B50446AFF300802046BDE81040FFF79A
:1004E00070BE000000487047AC0700202DE9F041C5
:1004F000044622480D4686B0016841F002010160C1
:100500000068642D00F00200059000D363254FF4CD
:1005100080760120CDE90060002002900320184F72
:1005200003906946384600F015FAB846C5F16407ED
:100530000FE001223146404600F0D7FA284600F08D
:100540002DF800223146404600F0CFFAB8B200F054
:1005500025F8641EE4B2ECD21120CDE9006002203F
:10056000029069464446404600F0F4F900223146C4
:10057000204600F0BAFA06B0BDE8F0811C3802400F
:1005800000040240FEE7704710B50446042001F065
:1005900020FB0148046010BD1C00002070B505461A
:1005A00000244FF47A7603E0304600F005F8641C2E
:1005B000AC42F9D370BD000070B54FF0E0240022CA
:1005C00065690949A36909684843A1699942FCD052
:1005D00002D2A3EB010302E0A5EB010633441A4467
:1005E0000B468242F1D370BD1C000020054B18441D
:1005F00004E000BF10F8013B01F8013B521E92B22B
:10060000F8D2704700000808074810B5016849058E
:1006100008D50415046002F001FA2046BDE8104038
:1006200000F096B910BD00001404014007490022F3
:100630004A6107490B6843F400730B600B6843F091
:1006400008030B6020F0FF00026070470C020020DE
:10065000043C02400A4610B50146002000F06AF84A
:100660000149087010BD000004000020134A002159
:100670001068C305124804D5416941F00201416187
:10068000911513689B0505D5436943F00103436148
:1006900041F4007113681B0505D5436943F0040359
:1006A000436141F4006113689B0405D5436943F03D
:1006B0001003436141F4005111607047183C02403F
:1006C0000C02002070B5054600F014FA0646134CE3
:1006D00009E0681C07D025B100F00CFA801BA84285
:1006E00001D9032070BD2068C007F2D120688007BF
:1006F00001D5022020602068C00508D420680005CC
:1007000005D42068800402D42068800503D5FFF753
:10071000ADFF012070BD002070BD0000183C0240FC
:100720000348016841F001010160002070470000AA
:10073000043C02402DE9F047064634480C46154675
:10074000017C01290BD00121814601744CF2503704
:100750003846FFF7B7FF4FF0000A18B112E0022049
:10076000BDE8F087C9F814A0022E0ED0012E13D0D8
:10077000D6B1DFF89C80042E21D0082E2CD0102E6C
:1007800037D0012089F810A0EAE73846FFF79AFF32
:100790000028F7D125600EE0ADB23846FFF792FF92
:1007A0000028EFD1258006E0EDB23846FFF78AFF3A
:1007B0000028E7D125703846FFF784FFE2E7EDB265
:1007C0003846FFF77FFF0028DCD1D8F8001021F46D
:1007D0008071C8F80010EDE7ADB23846FFF772FF40
:1007E0000028CFD1D8F8001021F48071C8F800108B
:1007F000D8E73846FFF766FF0028C3D1D8F80010C5
:1008000021F48071C8F80010C4E700000C02002039
:10081000043C024006480068C00707D00448054968
:1008200008300160044901600020704701207047D2
:10083000043C0240EFCDAB89050403022DE9F047EB
:100840001C4E05460F46307C012808D0012030742C
:100850004CF250384046FFF735FF18B127E0022030
:10086000BDE8F0874FF0FF313960C146DFF84880BE
:100870006C6816E02046FFF7D9FE4846FFF722FFD6
:10088000D8F8002022F00802C8F80020D8F800208C
:1008900022F40072C8F8002008B13C6007E004F5BB
:1008A0008074D5E9011201EB0221A142E2D80021B6
:1008B0003174D5E70C020020043C02400348016873
:1008C00041F002010160002070470000043C02403A
:1008D0002DE9F0410C4C16460F46207C012809D02A
:1008E000012020744CF250384046FFF7EBFE002503
:1008F00018B107E00220BDE8F08165613E60404626
:10090000FFF7E0FE2574F6E70C0200200B480168B3
:10091000890710D50068C00705D008480849083085
:10092000016008490160054807490C30016007492A
:10093000016000207047012070470000043C024025
:10094000EFCDAB8905040302BFAE9D8C16151413C1
:10095000704700002DE9F84FDFF864B100234FF035
:10096000010C4FF0030A4FF00F090BF1040EA0E049
:100970000CFA03F6324072D04C68022C01D0122CD3
:100980000ED1DC0800EB8408D8F820405D07EF0E9C
:1009900009FA07F5AC430D69BD402543C8F820505E
:1009A00007685D0091F804800AFA05F408F003086E
:1009B000A74308FA05F848EA0708C0F800804F681E
:1009C000012F05D0022F03D0112F01D0122F11D1EA
:1009D0008768D1F80C80A74308FA05F848EA0708A9
:1009E000C0F808804768B7430E79C6F300169E40EA
:1009F0003E434660C668A6438C68AC403443C4603E
:100A00004C68E40054D52F4C256845F0010525605D
:100A1000246823F0030504F0010400942A4C2544C3
:100A2000AF689C07240F09FA04F6B743274EB0427B
:100A300001D1002615E0264EB04201D1012610E07A
:100A4000244EB04201D102260BE0234EB04201D128
:100A5000032606E0214EB04202D1042601E027E041
:100A60000526A6403E43AE60DBF800405D464E687A
:100A70009443F60300D514432C60DEF8004075461D
:100A80004E689443B60300D514432C600C4D0835D2
:100A90002C684E689443F60200D514432C60084D30
:100AA0000C352C684E689443B60200D514432C6074
:100AB0005B1C0A6832FA03F47FF45AAFBDE8F88F82
:100AC00000040140203802400000014000000240C4
:100AD0000004024000080240000C024000100240E6
:100AE0000069084000D0012070470AB18161704759
:100AF0000904FBE70148006870470000000000207F
:100B000070B5040011D021684CF6CC400860216813
:100B100045F255500860D4E9000141602168A068A1
:100B20008860FFF7E7FF054609E0012070BD00BFC0
:100B3000FFF7E0FF401B302801D9032070BD20687B
:100B4000C0680028F4D121684AF6AA200860002075
:100B500070BD00684AF6AA210160002070470000BD
:100B600002480168491C0160704700000000002035
:100B7000094810B5016841F004010160016841F0C5
:100B800002010160052000F0AFF80F2000F006F828
:100B900000F018F8002010BD003C024010B50446DB
:100BA00007484FF47A710068B0FBF1F001F01DF8CE
:100BB00000222146501E00F077F8002010BD0000F2
:100BC0005C00002070B5284C86B0206840F0010021
:100BD0002060206800F001000590206840F00200CD
:100BE0002060206800F002000590206840F00400BA
:100BF0002060206800F004000590206840F020008C
:100C000020602068032500F02000059049F6FF7061
:100C1000CDE9000500200290039069461348FFF7D4
:100C200099FE4FF6FF76694611480096FFF792FE4F
:100C3000694610480096FFF78DFE69460E480095FC
:100C4000FFF788FE206820F001002060206820F077
:100C500002002060206820F004002060206820F05E
:100C60002000206006B070BD1C3802400000024029
:100C700000040240000802400014024000F01F027D
:100C8000012191404009800000F1E020C0F880116E
:100C9000704700F01F02012191404009800000F1DF
:100CA000E020C0F800117047F0B40E4B1B680C46F2
:100CB000C3F30223C3F10705042D00D90425191D30
:100CC000072901D2002300E0DB1E012606FA05F108
:100CD000491E214099409E40761E16403143F0BC8B
:100CE00000F0BEBF0CED00E0064900F00702086806
:100CF0004FF6FF03184040EA0220034A1043086001
:100D0000704700000CED00E00000FA05BFF34F8FC4
:100D100005480168054A01F4E06111430160BFF331
:100D20004F8F00BFFDE700000CED00E00400FA0566
:100D30002DE9F047DFF8BC8105460E46D8F80000E3
:100D400000F00100B04214D2012E05D1D8F80010F5
:100D500041F00401C8F80010D8F8001021F001019A
:100D60003143C8F80010D8F8000000F00100B0428C
:100D700071D12878604C800705D52068A96820F0DB
:100D8000F000084320602878C00771D05A4A5A4BB7
:100D900069680120083A2C33022910D003292ED08B
:100DA00001292FD05FEA402797FAA7FCBCFA8CFCF8
:100DB0004CF0200C5FEA5C1C04D0126803E04FF496
:100DC0000037F1E71A6897FAA7F3B3FA83F303F051
:100DD0001F039840024262D0206820F003000843BD
:100DE0002060FFF787FE6968074641F288300229D4
:100DF00010D003291CD00129814626D034E04FF0C1
:100E00000077D1E70227CFE7FFF774FEC11B494502
:100E100001D926E081462068C0F381000228F3D181
:100E200026E000BFFFF766FEC11B494501D918E067
:100E300081462068C0F381000328F3D118E000BF89
:100E4000FFF758FEC11B49450BD82068C0F381004D
:100E50000128F5D10CE022E0FFF74CFEC11B49450B
:100E600002D90320BDE8F087206810F00C0FF3D101
:100E7000D8F80010404601F00101B14211D9012E0D
:100E800003D1016841F004010160016821F0010112
:100E900031430160006800F00100B04201D0012040
:100EA000E0E72878400705D52068E96820F4E0608D
:100EB000084320602878000706D52068296920F4B7
:100EC000605040EAC100206000F054F82168F02230
:100ED00092FAA2F201F0F001B2FA82F2D140074A8E
:100EE000515CC840064908600F20FFF757FE0020FC
:100EF000B8E70000003C024008380240B732000862
:100F00005C000020164810B5016841F48071016052
:100F1000134908310A6822F003020A600268114B83
:100F20001A40026000220A60001D01680E4B194041
:100F300041F42041016001684FF4F85494FAA4F49C
:100F40001023B4FA84F421F4F851A340194301604A
:100F500003480C30026006490448086010BD0000D8
:100F600000380240FEFFFAEEFF1FFF0068FF1F007F
:100F70005C0000201E4A116801F00C00042813D008
:100F8000082813D00C2813D0101F006800F460410B
:100F90004FF4604090FAA0F0B0FA80F0C1404FF4F6
:100FA0000040491C884070471248704712487047FB
:100FB0004FF4701393FAA3F301F47010B3FA83F3B0
:100FC000D8400E4B01F440011268185C4FF4400306
:100FD00093FAA3F3B3FA83F3D940491CD20301D5A2
:100FE000054A00E0034A5043B0FBF1F070470000AF
:100FF000083802400024F40000127A00AE320008E3
:101000002DE9F84F07460078FB4EFC4DC0074FF026
:10101000010428D0F848083001684FF40038C1F3C3
:101020008101022907D00168C1F3810103291BD185
:101030000068C00318D598FAA8F0B0FA80F040F024
:101040002000400901D0306800E0286898FAA8F133
:10105000B1FA81F101F01F0104FA01F108425CD0FC
:10106000786800287BD058E0786801280AD008B159
:10107000052811D0306820F480303060306820F4CA
:10108000802002E0306840F480303060786828B317
:10109000FFF730FD81460BE0306840F4802030607F
:1010A000F0E700BFFFF726FDA0EB0900642872D827
:1010B00098FAA8F0B0FA80F040F02000400901D082
:1010C000306800E0286898FAA8F1B1FA81F101F0DF
:1010D0001F0104FA01F10842E4D01EE0FFF70AFD07
:1010E000814605E0FFF706FDA0EB09006428DED885
:1010F00098FAA8F0B0FA80F040F02000400901D042
:10110000306800E0286898FAA8F1B1FA81F101F09E
:101110001F0104FA01F10842E4D13878DFF8E082D7
:1011200080074FF0000B4FF002095FD5B24808303E
:101130000168C1F38101012907D00168C1F3810170
:1011400003291CD10068C00319D499FAA9F0B0FA98
:1011500080F040F02000400902D0306801E086E0D5
:10116000286899FAA9F1B1FA81F101F01F0104FA96
:1011700001F108422BD0F868012878D127E0F868FF
:10118000A8B394FAA4F0B0FA80F048F82040FFF732
:10119000B1FC824606E066E1FFF7ACFCA0EB0A007A
:1011A000022884D899FAA9F1B1FA81F141F020011D
:1011B000490901D0316800E0296899FAA9F0B0FA2C
:1011C00080F000F01F0004FA00F00142E4D08A48E9
:1011D000001D01684FF4F85393FAA3F33A69B3FA88
:1011E00083F321F4F8519A401143016025E0FFE7B1
:1011F00094FAA4F1B1FA81F148F821B0FFF77AFC32
:10120000824605E0FFF776FCA0EB0A000228C8D86A
:1012100099FAA9F0B0FA80F040F02000400901D01E
:10122000306800E0286899FAA9F1B1FA81F101F07B
:101230001F0104FA01F10842E4D138784FF4007A32
:10124000C0067CD56C480830006810F00C0F0FD039
:10125000B9694FF48070002972D090FAA0F0B0FA0A
:1012600080F048F82040FFF745FC00907EE087E0E2
:101270009AFAAAF0B0FA80F040F02000400901D0BC
:10128000306800E028689AFAAAF1B1FA81F101F019
:101290001F0104FA01F1084202D0B86900286FD09A
:1012A0005548396A001D006800F4604081421AD92F
:1012B000084600F049FD002862D14F48001D016832
:1012C0003A6A21F460411143016001684FF07F43A5
:1012D00093FAA3F3FA69B3FA83F321F07F419A40BA
:1012E0001143016018E04448001D026822F4604286
:1012F0000A43026001684FF07F4393FAA3F3FA694F
:10130000B3FA83F321F07F419A4011430160386AB8
:1013100000F01AFD0028CFD14FF4604191FAA1F1FD
:10132000386AB1FA81F1C8404FF40041401C814055
:10133000314808300068F02200F0F00001E070E071
:1013400040E092FAA2F2B2FA82F2D0402D4A105C4A
:10135000C1402D4801600F20FFF720FC61E000BF75
:10136000FFF7C8FB0099401A02287CD89AFAAAF025
:10137000B0FA80F040F02000400902D0306801E06F
:10138000BCE128689AFAAAF1B1FA81F101F01F01D3
:1013900004FA01F10842E3D01748001D01683A6AD7
:1013A00021F460411143016001684FF07F4393FADB
:1013B000A3F3FA69B3FA83F321F07F419A40114312
:1013C00001602EE090FAA0F0B0FA80F048F820B06A
:1013D000FFF790FB009005E0FFF78CFB0099401AA7
:1013E0000228C2D89AFAAAF0B0FA80F040F02000A1
:1013F00040090BD030680AE000380240343802401F
:1014000000004742B73200085C00002028689AFAC2
:10141000AAF1B1FA81F101F01F0104FA01F10842C9
:10142000DAD13878000753D5786948B394FAA4F034
:10143000B0FA80F008EB8000C0F88046FFF75AFB56
:10144000009005E0FFF756FB0099401A02288CD85F
:1014500099FAA9F0B0FA80F040F04000B4EB501FC8
:1014600002D1306801E08EE0286899FAA9F1B1FA5A
:1014700081F101F01F0104FA01F21042E2D027E0ED
:1014800094FAA4F1B1FA81F108EB8101C1F880B6B8
:10149000FFF730FB009005E0FFF72CFB0099401AA6
:1014A000022870D899FAA9F0B0FA80F040F0400014
:1014B000B4EB501F01D1306800E0286899FAA9F117
:1014C000B1FA81F101F01F0104FA01F21042E3D1F7
:1014D000387840077BD59B484FF000090068C00072
:1014E0000AD49848016841F08051016000684FF0CB
:1014F000010900F08050009093480168C90511D49B
:10150000016841F480710160FFF7F4FA009005E092
:10151000FFF7F0FA0099401A642834D88A48006826
:10152000C005F5D5B86801280AD008B1052811D042
:10153000286820F480702860286820F4806002E029
:10154000286840F480702860B86848B3FFF7D2FA82
:1015500000900DE0286840F480602860F0E700BF4C
:10156000FFF7C8FA0099411A41F2883081420AD83F
:101570009AFAAAF0B0FA80F040F04000B4EB501FA5
:1015800002D1306801E095E028689AFAAAF1B1FA30
:1015900081F101F01F0104FA01F21042E0D022E0D3
:1015A000FFF7A8FA009007E0FFF7A4FA0099411AA4
:1015B00041F2883081427DD89AFAAAF0B0FA80F0E0
:1015C00040F04000B4EB501F02D1306801E012E05F
:1015D00028689AFAAAF1B1FA81F101F01F0104FA20
:1015E00001F21042E0D1B9F1000F04D05548016872
:1015F00021F080510160786AE8B3DFF84891A9F1E1
:101600001C09D9F80010C1F38101032976D0022802
:101610004FF080714FF0007A58460BD091FAA1F14B
:10162000B1FA81F148F82100FFF764FAB0460746A5
:1016300056466DE04FF0807191FAA1F1B1FA81F157
:101640008A0042495050FFF755FAB3468046564645
:1016500006E000BFFFF74EFAA0EB0800022854D8BE
:1016600096FAA6F0B0FA80F040F02000400903D0CE
:10167000DBF8000001E061E0286896FAA6F1B1FA13
:1016800081F101F01F0104FA01F10842E2D1D7E92A
:101690000A103A6BD9F80030014323F47D031A4352
:1016A0001143C9F800104FF0807090FAA0F0B0FA22
:1016B00080F000E029E0810024480C50FFF71AFA7E
:1016C000074604E0FFF716FAC01B02281DD896FA59
:1016D000A6F0B0FA80F040F02000400902D0DBF81C
:1016E000000000E0286896FAA6F1B1FA81F101F055
:1016F0001F0104FA01F10842E4D01FE020E000BF1E
:10170000FFF7F8F9C01B022802D90320BDE8F88FC3
:1017100096FAA6F0B0FA80F040F02000400902D01E
:10172000D8F8000000E0286896FAA6F1B1FA81F135
:1017300001F01F0104FA01F10842E1D10020E5E7C0
:101740000120E3E7243802400070004000004742D7
:1017500070B5040004D094F85100002510B106E0E3
:10176000012070BD84F85050204600F02FF8022070
:1017700084F851002068016821F040010160D4E93B
:1017800001010843D4E90312114308436169084386
:10179000218B01F400710843E1690843216A084381
:1017A000A16A084321680860A069042101EA104089
:1017B000616A0843216848602168E06A08616565DC
:1017C000012084F85100002070BD00002DE9F04F89
:1017D00007464F4C4D48251D0526DFF838918BB044
:1017E0004FF0200A4FF002084FF0030B874236D12A
:1017F000206840F001002060206800F001000A909D
:10180000206840F001002060206800F001000A908C
:10181000206840F001002060206800F001000A907C
:10182000286840F480502860286805A900F480509A
:101830000A90CDE905A80996CDE9078B4846FFF740
:1018400089F84020059005A909964846FFF782F8D7
:101850008020059005A909964846FFF77BF82E4899
:10186000874250D1206840F002002060206800F0DC
:1018700002000A90206840F001002060206800F01B
:1018800001000A90206840F001002060206800F00C
:1018900001000A90206840F001002060206800F0FC
:1018A00001000A90286840F48050286028684FF4AE
:1018B000805400F480500A900127184DCDE900476C
:1018C0006946CDF80CB02846FFF744F8CDF800A0E3
:1018D0000496CDE9018769464F464846FFF73AF836
:1018E00080200090694604963846FFF733F8402080
:1018F0000090694604963846FFF72CF801222146ED
:101900002846FFF7F2F80BB0BDE8F08F94020020F4
:101910001C38024000000240300200200004024057
:101920002DE9F8430025DDF820800446ADF800508D
:1019300090F85100012803D094F8510022287DD15D
:1019400069B162B15BB194F85000012876D00126EC
:1019500084F8506094F85100012803D005E001207C
:10196000BDE8F883322084F851006565A263A3873F
:10197000E3872163A386E386A564E564A06A4FF448
:101980000057B84209D12068016821F40051016074
:101990002068016841F4005101602068016849062F
:1019A00003D4016841F040010160E0684FF48271A6
:1019B000B0F5006F606807D0002867D088426ED10C
:1019C000E08E012862D06AE020B188420CD1E08E1E
:1019D000012809D1206B21680088C860206B801C19
:1019E0002063E08E401EE086E08E40BBA06AB842D5
:1019F00044D12068016841F4805101603EE02068D4
:101A0000C068A16B0880A06B801CA0639EE0434669
:101A100000220221204600F0FDF9002874D1206B3D
:101A200021680088C860206B801C2063E08E401E07
:101A3000E086E08E50B9A06AB84201E0C7E017E046
:101A400004D12068016841F48051016043460022BE
:101A50000121204600F0DEF900286FD12068C0681F
:101A6000A16B0880A06B801CA063E08F401EE08704
:101A7000E08E0028CBD1606800286AD1434600225E
:101A80000121204600F0C6F9F0BBB8E7206B411CED
:101A9000216321680078C860E08E401EE086E08EF9
:101AA00098BBA06AB84204D12068016841F4805113
:101AB0000160434600220121204600F0ABF918BB2B
:101AC0002068C068A16B087040E0434600220221F4
:101AD000204600F09FF9B8B9206B411C21632168B2
:101AE0000078C860E08E401EE086E08E38B9A06ABB
:101AF000B84204D12068016841F48051016000229D
:101B000043460121204601E018E00BE000F082F995
:101B1000A0B92068C268A06B411CA1630270E08F6D
:101B2000401EE087E08E0028CFD1606888B9434628
:101B300000220121204600F06DF908B103200FE7D3
:101B40002068C168A06B421CA2630170E08F401E38
:101B5000E087A06AB84210D1434600220121204606
:101B600000F058F918B1606D40F002000FE02068F5
:101B7000C068ADF80000BDF8000043460122802196
:101B8000204600F047F920B1606D40F0200060650C
:101B9000D4E784F85160A06AB84214D12068816803
:101BA000C943C9060FD4616D41F002016165016846
:101BB00021F4005101602068016841F40051016086
:101BC00084F85050CBE684F850500020C8E602203C
:101BD000C6E64FF0E0210428086903D020F0040095
:101BE0000861704740F00400FAE710B5401EB0F1FC
:101BF000807F01D3012010BD4FF0E02460610F21F0
:101C0000601700F02DF80020A0610720206100205F
:101C100010BDFEE70148FEF79CBF00002402002033
:101C2000044A034B1360C2E901011046FEF768BF86
:101C3000003000402402002008B5016800BF064AB9
:101C40001140B1F1005F05D141680091006880F357
:101C500008888847012008BD0000F02FFEE7704784
:101C60000907090E002806DA00F00F0000F1E02055
:101C700080F8141D704700F1E02080F800147047D0
:101C80007047000070B52D4C8CB0206840F001000A
:101C900020602068A51500F001000A900120CDE920
:101CA0000550002007900320254E089005A93046D6
:101CB000FEF750FE012229463046FEF716FF206847
:101CC00040F002002060206800F002000A902068C6
:101CD00040F00200206020681A4C00F002000A90D8
:101CE000402000901120019069462046FEF732FE08
:101CF0008020009069462046FEF72CFE00224021FD
:101D00002046FEF7F2FE002280212046FEF7EDFE7F
:101D100040F6B830FEF742FC002229463046FEF776
:101D2000E4FE012240212046FEF7DFFE0122802151
:101D30002046FEF7DAFE0CB070BD00001C380240F1
:101D4000000002400004024038B51C490023096825
:101D50001B4A11F0F00F23D118491C310C68E50023
:101D6000184C03D5216801F4C0540EE00D6845F00D
:101D700080550D600D6805F08055009524680D684C
:101D800004F4C05425F080550D60B4F5C05F07D150
:101D9000B0F5404F04D11068012340F004001060FA
:101DA000106820F0010018431060106800F0010076
:101DB000984201D0012038BD002038BD08380240CB
:101DC000003C024000700040704770470F4810B55B
:101DD000016886B041F00201016000680C4C00F01F
:101DE0000200059008200090012001900020029040
:101DF0000320039069462046FEF7ACFD002208212F
:101E00002046FEF772FE06B010BD00001C380240EE
:101E1000000402402DE9F0471D4690460E46044658
:101E2000FEF768FE07465FEA08004FF000084FF42F
:101E3000005A4FF0010926D034E0681C23D025B1A8
:101E4000FEF758FEC01BA8421DD92068416821F04A
:101E5000E00141602068016821F040010160A06A52
:101E6000504509D12068016821F4005101602068C3
:101E7000016841F40051016084F8519084F8508069
:101E80000320BDE8F0872068806836EA0000D4D1DE
:101E90000DE0681C06D0002DD7D0FEF72BFEC01B2E
:101EA000A842D2D82068806836EA0000F1D000202D
:101EB000E7E7704770B594B00D460646FFF722F885
:101EC000012103910220102109AA009000240C9501
:101ED000049182E851006846FFF792F800B1FEE7EE
:101EE0001148016841F080510160006800F08050A5
:101EF00012900E48016821F4C05141F40061016064
:101F00004168C943C906FBD50F200D900320CDE9D8
:101F10000E04109401210DA81194FEF709FF00286A
:101F200000D0FEE714B070BD2438024000700040BD
:101F300010B5FEF715FE00F021F8BDE8104000F0E6
:101F400007B8000001488068704700000C000020BE
:101F500010B5FEF7CFFD08494A68904202D9831AAE
:101F6000642B03D8D3431844642804D3C868401CA6
:101F700064324A60C86010BD0C00002010B5FEF746
:101F8000B9FD0A494FF47A730A68904202D9841A5B
:101F90009C4203D8D4432044984205D3886802F574
:101FA0007A72401C0A60886010BD00000C0000209E
:101FB0000F48016841F4807101600D4908310A68D9
:101FC0000C4B1A400A6002680B4B1A400260026810
:101FD00022F480220260086820F47D00086000205E
:101FE000091D086005494FF0006008607047000057
:101FF000003802400CC0FF88FEFFFEEE08ED00E056
:102000000278002162F30701427862F30F2182789F
:10201000C07862F3174160F31F61084670472DE9ED
:10202000F04115460E460746002405E0315D38199B
:10203000FEF710FB641CE4B2AC42F7D3BDE8F081BC
:10204000FEF708BB704770477047FEE77047000017
:10205000002210B51146104600F0DEFB114CA079AD
:10206000000708D5012000F07FFB022000F0C0FB34
:10207000082000F079FBA078810601D5202010BD52
:10208000C10601D5102010BD000702D5022000F0C6
:10209000AFFBA078810701D5022010BDC007FCD09E
:1020A000012010BD8807002001B582B000208DF806
:1020B000040064200090012301AA02A90248FFF74E
:1020C0002FFC9DF804000EBD9402002010B50446BC
:1020D000FEF7F4FB2046BDE81040FFF7ADBD000061
:1020E00088B02022E4496846FEF723F9FEF740FD58
:1020F0004FF400010811FFF7DDFE4FF47A6106206E
:10210000FFF78EFDFFF786FDFFF760FE2020FEF74C
:102110003BFAFFF7B7FD00F0B9FDDFF86493D7494C
:102120001920C9F8181000F065FC00F023FCD54D0B
:1021300003244FF0020B012858D0032859D085F80A
:1021400000B000BF00F010FC074628210120FEF778
:10215000CDF96420FEF722FA14210220FEF7C6F919
:102160006420FEF71BFA28210120FEF7BFF9642046
:10217000FEF714FA14210220FEF7B8F96420FEF7E6
:102180000DFA28780A2630308DF80F0097FBF6F00C
:1021900030308DF8180097FBF6F006FB10703030E9
:1021A0008DF8190032208DF8060035208DF80700D3
:1021B000684600F0ABFE00BF072F06DDF8071AD017
:1021C00085F800B0642F00DD07277F1CF8B200F00F
:1021D000DFFB2878DFF8B0A24FF46178022856D0F0
:1021E00000F04EFD48B185F800B050E001202870A5
:1021F000A8E72C70A6E72C70E4E701208AF800001D
:1022000000F03DFEA149DFF888B2086034E0C82044
:1022100040F2E6310F467F1EFDD1401EFAD1FFF796
:10222000F9FC00F0D3FEFEF765FCB0FBF4F104FB13
:10223000110064214843FEF7B1F901F011F80120C3
:10224000FEF7ACF900F09CFE7F1C4745F7DBFFF77B
:1022500079FE782805D38AF80040FEF72FFBFEF7B9
:1022600055FDFFF76FFEB0FBF6F106FB110018B944
:1022700014210120FEF73AF99BF800000028C6D18E
:1022800028784FF4FA7B012806D0032875D0D9F8B6
:10229000180000F027FFF3E74FEA0A0700F070FE8E
:1022A0003878E8B3022804D0012822D004284CD082
:1022B00054E000F065FEFFF745FE404501D33C7059
:1022C00048E0FFF73FFE054600F054FE1E30854211
:1022D00004D900F04FFE08B100BFF0E7FFF732FE6F
:1022E000054600F047FE0A30854237D900F06EFE01
:1022F00034E000F06BFE5D460120FEF74FF900F080
:102300003FFE6D1EF8D1FEF7F5FBB0FBF4F104FBC8
:10231000110064214843FEF741F900F0A1FF00E0FD
:102320000BE05D460120FEF739F900F029FE6D1E35
:10233000F8D1FFF707FE782810D3022000F03CFB0D
:10234000D9F8180000F0CEFE08E000BF42F210708D
:10235000FEF724F9FEF7B2FAFEF7D8FCFFF75AFCB5
:10236000FFF7F0FDB0FBF6F106FB1100002895D158
:1023700014210120FEF7BAF890E72AE000F026FECB
:10238000DA465F460120FEF709F900F0F9FD7F1EED
:10239000F8D1FEF7AFFBB0FBF4F104FB11006421B0
:1023A0004843FEF7FBF800F05BFF57460120FEF7BD
:1023B000F5F800F0E5FD7F1EF8D1FFF7C3FD4045BD
:1023C00004D32C70FEF77AFAFEF7A0FCFFF722FC8C
:1023D00045E0554628780128D0D0022803D010B314
:1023E000042828D030E000F0CBFDFFF7ABFD4045DE
:1023F00001D32C7024E0FFF7A5FD074600F0BAFDDD
:102400001E30874204D900F0B5FD08B100BFF0E7E7
:10241000FFF798FD074600F0ADFD0A30874213D95B
:1024200000F0D4FD10E0022000F0C6FAD9F8180040
:1024300000F058FE08E000BF42F21070FEF7AEF860
:10244000FEF73CFAFEF762FCFFF7E4FBFFF77AFDCC
:10245000404504D32C70FEF731FAFEF757FCFFF726
:1024600071FDB0FBF6F106FB11000028B2D114217A
:102470000120FEF73BF8ADE7903200080038000875
:1024800020000020E8010020DE010020F8010020EB
:10249000DC0100202DE9F0478A46817800270909F0
:1024A000C67886B0012902D0042955D055E0DFF85E
:1024B000CC90DFF8CC80334C00F10805012E17D109
:1024C0002078A8B9032000F077FAD8F8001021F49A
:1024D0007F426979891E616142EA0121C8F80010D2
:1024E000494505D3434604220021274800F068FEF1
:1024F000D8F800C0CC4503D2012006B0BDE8F08773
:102500006068C11700EB116121F0FF01411AB1426F
:1025100023D0C1012B468022604600F051FE30B12D
:102520002069401C01272061FF2E07D009E0606868
:10253000401C6060A0688030A060F5E72078401CF7
:1025400020706068C11700EB116121F0FF01401A93
:10255000B04202D0012700E00227002002A9CDE905
:10256000001053463246032100F0F2FD9DF808109A
:1025700002A800F07FFC3846BFE7000000380008E2
:1025800038000020EC01002000370008014900203D
:1025900008707047040200202DE9F0410F460646FE
:1025A00042F2107500F0A2F8442000F0CFF800F0DD
:1025B000BDF80446FF280AD000F0B0F862206D1E76
:1025C000401EFDD1002DEDD1FF2C07D009E01EB13A
:1025D0003946304600F0ADF800F0A0F8024901207D
:1025E00008702046BDE8F081040200200021084662
:1025F000FFF7D2BF2DE9F0410F4D1E46174680462A
:102600000A2439B909E000BFFFF7F0FF641E14F097
:10261000FF0402D028780028F6D000F067F8404682
:1026200000F094F83146384600F083F800F076F870
:1026300000202870BDE8F081040200202DE9F0415F
:102640000E4607460A240C4D06E000BFFFF7CEFFFA
:10265000641E14F0FF0402D028780028F6D000F0A1
:1026600045F83146384600F073F800F057F800207E
:102670002870BDE8F08100000402002070B51C46FF
:102680001546FFF7DBFF21462846BDE87040FFF7FF
:1026900083BF00002DE9F0410F4D1E4617468046CE
:1026A0000A2439B909E000BFFFF7A0FF641E14F047
:1026B000FF0402D028780028F6D000F017F8404632
:1026C00000F044F83146384600F042F800F026F8B1
:1026D00000202870BDE8F0810402002001221021B2
:1026E0000148FEF702BA00000004024000224FF445
:1026F00000410148FEF7F9B9000002400022102114
:102700000148FEF7F2B90000000402404FF4806176
:102710000148FEF7E5B90000000402400122D103A0
:102720000148FEF7E2B9000000000240FF20FFF779
:10273000BBBC70B50C46054604E0FF20FFF7B4FCB7
:1027400004F8010B6D1EEDB2F7D270BDFFF7ACBC03
:1027500070B50C46054603E014F8010BFFF7A4FC26
:102760006D1EEDB2F8D270BD034934220A70487074
:102770000220FFF763BF00009C07002070B51A4DD0
:102780000446002028602AE0641C102825D8002177
:10279000164B04E014F8012B5A54491CC9B281426B
:1027A000F8D32968491C2960392900D100BF0023CA
:1027B0001A460E49FFF762FFFF2801D0022070BDC4
:1027C000FFF7A4FF58B900221146104600F024F884
:1027D000064814388079000701D5042070BD2078A0
:1027E0000028D1D170BD0000080200209C07002005
:1027F00010B5084C1521234621706070022219463D
:102800001046FFF73BFFA4F11400217801706178B6
:10281000417010BD9C07002010B50F4C2023237081
:102820006070A170E2702346082219460420FFF769
:1028300025FFA4F114002178017061784170A1781E
:102840008170E178C1702179017161794171A1795B
:102850008171E179C17110BD9C07002010B50E4C4B
:1028600001202346207008221946FFF707FFA4F134
:102870001400217801706178A27842EA0121416058
:10288000E17801722179627942EA0121C160A1797E
:102890000174E179417410BD9C0700200B4602468B
:1028A00000217720FFF7A6BE10B5FFF717FF40F213
:1028B000E730401EFDD1FFF721FF40F2E630401E19
:1028C000FDD1BDE81040FFF761BE00000FB40D4A16
:1028D00010B511231370507091709DF81000D070D6
:1028E00005AB042005E000BF13F8044B1454401C52
:1028F000C0B2491EC9B2F7D20249FFF79FFE10BC11
:102900005DF814FB9C070020F0B4094CDDE9045687
:10291000322727706070A170100AE0702271637115
:10292000A571E6712146F0BC0820FFF787BE0000C4
:102930009C07002030B4084B31241C7058709970EB
:10294000100AD8701A7100205871987130BC19465D
:102950000720FFF773BE00009C0700200B460246CD
:1029600000216620FFF796BE0148007870470000FE
:102970007B04080801480078704700000C04080830
:1029800000B50248FFF73CFBC0B200BDB90408081F
:1029900010B50446FDF73EFF05494FF4006008609E
:1029A00021460448FFF74CFBBDE81040FDF7B8BED8
:1029B000183C02407B04080810B50446FDF72AFFC6
:1029C00008494FF400600860042207A10848FFF797
:1029D00026FB07482146001DFFF732FBBDE81040EB
:1029E000FDF79EBE183C024054434C4400000000DA
:1029F0000804080810B50446FDF70CFF05494FF41C
:102A00000060086021460448FFF71AFBBDE810404B
:102A1000FDF786BE183C0240280408082DE9F8435B
:102A2000394DFFF715FB20280CD002280ED00026C8
:102A3000364C4FF0010810280CD0012834D1E07931
:102A4000A0B347E0BDE8F84300F0FEB8BDE8F843A6
:102A500000F0E4B8A179207A091A491CCFB2E179D3
:102A600029B329183846FFF719FF207A3844207215
:102A7000A6702672E671FF20009000231122022129
:102A80001220FFF723FF0021607800F0E9FA2846C2
:102A900000F044FB10B11C4800F0F0F8FF2128467C
:102AA000FDF779FC84F80280BDE8F8830BE0174954
:102AB0000120891DFFF7F2FE691CA079FFF7EEFEE9
:102AC000A0792870D4E729460120FFF7E7FE28788F
:102AD000A0712672A179207A091A491CC9B230293D
:102AE000E2D3E17969B129185FF03000FFF7D6FE33
:102AF000207A30302072E0790028D5D184F8078020
:102B0000D2E7691C2F20F1E7EC02002060000020D2
:102B100070B5114C0122491CE0602270C9B20D4D04
:102B2000217100226271627991420AD96279891A0F
:102B3000CAB261790144607800F0A8FA617908446A
:102B40006071A078002804D02078012801D16D1E82
:102B5000FBD270BD80380100600000200D490020CC
:102B600000EB400202EB801211F82220012A05D06E
:102B7000401C40B20228F3DB0020704700EB40030A
:102B800003EB8010002201F8202001EB80000830C8
:102B900070470000700500202DE9F0410025014636
:102BA0001D4E681E2C4600BF04EB440202EB84124B
:102BB00016F8223003B9204605EB450303EB8513D5
:102BC00006EB820206EB830352685B689A4200D2EE
:102BD0002546641C64B2022CE6DB002800DA284695
:102BE00000EB400202EB801406EB840707F10800BB
:102BF00040F20112FDF758FB012006F8240005EB16
:102C0000450000EB851006EB800148687860486855
:102C1000401C4860BDE8F0817005002010B5094CEB
:102C20002079617988420BD96179401AC2B2617901
:102C3000E0680144607800F029FA61790844607125
:102C400010BD00006000002038B50B4C2078002833
:102C500010D0002060712070FF200090002311220E
:102C600002211220FFF732FE6078BDE838400021D3
:102C700000F0F6B938BD000060000020FFF78CBFFF
:102C80000148C078704700006000002070B5FFF771
:102C900077FE24251E4C24280FD0FFF771FE042850
:102CA0001BD0FFF76DFE062817D0FFF769FE10282E
:102CB00013D0FFF765FE1A280FD0657000F02CF8CE
:102CC00000F0C4F9FFF7CAFD12484068A0F588413A
:102CD000383904D00120E07070BD6070EEE700204C
:102CE000E07001E000F0B2F909481030FFF746FD4E
:102CF0000028F7D1002211461046FFF78DFD002174
:102D0000607800F0ADF92820FDF7C3FF002070BD0A
:102D1000600000208807002030B52D4887B02B497F
:102D200001601821C16100218160416107220161B8
:102D3000C0E90A12C1604FF400720162826141620F
:102D40004FF482714160FEF703FD2248016841F0B3
:102D500002010160016801F002010591016841F082
:102D600002010160016801F002010591016841F072
:102D7000010101600068012400F0010005904FF49A
:102D80000040CDE900040325694603951248FDF78C
:102D9000E1FD10200395CDE90004104D6946284659
:102DA000FDF7D8FD0E48CDE90104A0020090694668
:102DB0002846FDF7CFFD002202212820FDF774FFF1
:102DC0002820FDF75BFF07B030BD00000030014058
:102DD000940200201C38024000000240000402401F
:102DE000000021102DE9F04105464078002600F052
:102DF0000701042903D002263046BDE8F0814009CE
:102E0000FAD104221049281DFDF703FA0028F3D156
:102E1000A87802270D4CB7EB101F02D1287A20703A
:102E2000EAE7A0780328E7D007492846FFF732FBF6
:102E3000E070022803D020B10420A070DCE700205D
:102E4000FBE7A770D8E70000F8010020DC010020B4
:102E500070B50C460546FFF781FE010008D00878E2
:102E6000401CC2B222702846FDF71EFA002070BD39
:102E7000012070BD10B5FFF74BFE002010BD08B556
:102E80000422694640F60440FDF7B0FBBDF802009D
:102E90009DF8011040BA61F31F409DF8001040EA10
:102EA000016008BD2DE9F0411F46DDE906450346F6
:102EB00005F1090020706078002620F00700401D11
:102EC00020F0E00040F020006070A07820F0F000DA
:102ED00040EA0110A07002B1E2702DB12A461946F5
:102EE00004F10800FDF7E0F96760012005F1080131
:102EF00004E0225C401C324496B2C0B28842F8D34F
:102F0000310A601901724672BDE8F0817CB506464F
:102F1000174CFDF7AAF9C5B21E2D00D91E25FFF7E3
:102F2000FBFEFFF7ADFE002820D1401E20600120EF
:102F300020713A2060712A463146A01DFDF774FACF
:102F4000FFF79DFF034600F039F80246AD1DE8B2D9
:102F5000074D0521203DCDE900502046FFF7A2FF97
:102F600029782846BDE87C40FFF784BF7CBD00007F
:102F7000100400200148806870470000DC01002038
:102F800008B500208DF80000FFF77AFE002810D168
:102F900069460848FFF75CFF00280AD19DF8001039
:102FA0000448FFF71FFF002803D1FEF7CBFF0249BB
:102FB000886008BD70040020DC01002002494878C8
:102FC000421C4A7070470000DC0100207CB51D4C9B
:102FD000FFF756FE002833D1401E206001252571E1
:102FE000382060710020A0711920E0713320207218
:102FF000FFF746FE08B36572134DA878A072FEF77E
:10300000A1FF69680A3188421AD9FEF79BFF686000
:10301000FFF735FF0346FFF7D1FF0A4D02460B20AD
:10302000203DCDE9005005212046FFF73BFF2978E0
:103030002846BDE87C40FFF71DBF02206072DBE739
:103040007CBD000010040020DC01002010B500242D
:10305000FFF72AFC4FF48050641C8442FCD310BD5F
:103060007CB500220C46054611461046FFF7D4FBFE
:103070000220FFF7BDFB08210320CDE9000100235A
:10308000224619462846FFF73FFC7CBDF8B50646A8
:1030900014460D460320FFF767FB0120FFF7A8FB4E
:1030A000002211461046FFF7B7FB302C05D3294606
:1030B0003020FFF753FC302505E0671CF8B22946A5
:1030C000FFF74CFCFDB200231122022112200094D4
:1030D000FFF7FCFB002280213046FFF72BFC28463F
:1030E000F8BD000009490A6809490A6100BF824227
:1030F00005D3084B9A4202D210464A6100E048616B
:103100000549086062B6FEF7E1BF0000003700081D
:10311000200000200000020808ED00E030B5027831
:1031200000230121541E04E0455C491C2B449BB242
:1031300089B2A142F8DB921E02704218405C5278BC
:1031400002EB0020984201D1012030BD002030BDAB
:103150002DE9F0411F46DDE90645034605F109006A
:1031600020706078002620F00700001D20F0E000AD
:103170006070A078012920F0F00040EA0110A070F2
:1031800003D0032901D0042900D1E2702DB12A46D1
:10319000194604F10800FDF787F8386860600120DF
:1031A00005F1080104E0225C401C324496B2C0B232
:1031B0008842F8D3310A601901724672BDE8F08185
:1031C0002DE9F04717468246C81999460D46C1F3C6
:1031D0000F24CEB2B0F5003F02D90120BDE8F08740
:1031E000FDF794FB1B4940F2033008606EB91A48A2
:1031F000002101600AEB042141600121816017492F
:10320000FDF71CFB08B10320E8E700241CE000BF29
:1032100009EB040019F80410427801EB02218278CE
:10322000C078120402EB006001440AEB05000619A5
:1032300088460A4631460220FDF74AFB3068804541
:1032400001D00420CAE7241DBC42E1D3FDF736FBC0
:103250000020C3E7183C02408802002058000020EC
:1032600000B585B0012102A8CDE900010022064B7E
:1032700011460648FFF76CFF9DF8081002A8FFF7FB
:10328000F9FD05B000BD0000F8010020E8010020B4
:10329000426F6F74202D2D2D2D2D6D6F64652D2D9A
:1032A0002D636F756E742D2D2D2D2D2D00000304B3
:1032B00006080C101820300000000000000000017B
:1032C0000203040607080900E83200080000002095
:1032D0000C02000030010008283400080C02002015
:1032E000040C00008C010008013C90195350492047
:1032F000464C4153482055706772616465203A20FE
:103300002D2D2D25D748E80101240114070201774E
:1033100001C9C380081313061112021252130511BA
:10332000100801036006110102570133081102045D
:10333000150D111009130414430F1215091111056D
:10334000100A03B4D2D2B40B111207100F80010877
:10335000FFFF08021011120C082A0113303023015C
:10336000063A3F11C2142911C2209E0D1112092CD8
:103370001F1B200C842D070F42409A11100E0D05C3
:103380001120010CA70C112008180114080380104B
:103390000810200D1120092210084B06D3A006D4D6
:1033A00002160B1120072C142386D42BD3A02D2812
:1033B0000B35E207112003381110100E2B40282E78
:1033C000280B42A403D60301AA0180FF141A4CE182
:1033D0002D20014E400617510A1011210C280DFF17
:1033E000C4307FF5B5B8DE0517160C11130C032396
:1033F00015FF491729114A181C49171508112204ED
:10340000130814163D0B112307D00C34040B0407CA
:1034100070031011300C150C11400810093E0AAA57
:08342000AA444420FE022F0122
:04000005080000F5FA
:00000001FF
