:020000040800F2
:10000000581E0020D1010008EB1C00089F1C0008AE
:10001000E91C0008850500086B20000800000000AE
:10002000000000000000000000000000D31E0008D7
:1000300087050008000000000D1D0008511F000882
:10004000EB010008EB010008EB010008E11D0008CE
:10005000EB010008EB010008EB010008EB010008D0
:10006000EB010008EB010008EB010008EB010008C0
:10007000EB010008EB010008EB010008EB010008B0
:10008000EB010008EB010008EB010008EB010008A0
:10009000EB010008EB010008EB010008EB01000890
:1000A00000000000EB010008EB010008EB01000874
:1000B00065200008EB010008EB010008EB010008D7
:1000C000EB010008EB010008EB010008EB01000860
:1000D000EB0100086720000869200008EB01000818
:1000E00009060008D51D0008EB010008EB01000817
:1000F000EB01000800F002F800F05AF80AA090E8BE
:10010000000C82448344AAF10107DA4501D100F0D2
:100110004FF8AFF2090EBAE80F0013F0010F18BF45
:10012000FB1A43F001031847E833000008340000CD
:100130000A444FF0000C10F8013B13F0070408BF0D
:1001400010F8014B1D1108BF10F8015B641E05D0AB
:1001500010F8016B641E01F8016BF9D113F0080F60
:100160001EBF10F8014BAD1C0C1B09D16D1E58BFF2
:1001700001F801CBFAD505E014F8016B01F8016B29
:100180006D1EF9D59142D6D370470000002300249C
:1001900000250026103A28BF78C1FBD8520728BF97
:1001A00030C148BF0B6070471FB51FBD10B510BDF3
:1001B00000F069F91146FFF7F7FF01F0A1FF00F029
:1001C00087F903B4FFF7F2FF03BC01F04FFF000013
:1001D0000948804709480047FEE7FEE7FEE7FEE7DB
:1001E000FEE7FEE7FEE7FEE7FEE7FEE70448054917
:1001F000054A064B70470000D11F0008F5000008B3
:1002000058180020581E0020581A0020581A0020A4
:10021000704740EA010310B59B070FD1042A0DD3A4
:1002200010C808C9121F9C42F8D020BA19BA8842D7
:1002300001D9012010BD4FF0FF3010BD1AB1D30716
:1002400003D0521C07E0002010BD10F8013B11F84C
:10025000014B1B1B07D110F8013B11F8014B1B1B75
:1002600001D1921EF1D1184610BD10B5431C02E019
:1002700010F8011B71B18107FAD14FF0013202C8A9
:100280008C1A8C4314EAC211F9D0C01A0A0603D0A2
:10029000C01E10BDC01A10BD0A0401D0801E10BDC2
:1002A0000902FCD0401E10BD032A40F2308010F03D
:1002B000030C00F0158011F8013BBCF1020F624401
:1002C00098BF11F801CB00F8013B38BF11F8013B92
:1002D000A2F1040298BF00F801CB38BF00F8013B3F
:1002E00011F0030300F02580083AC0F0088051F8AF
:1002F000043B083A51F804CBA0E80810F5E7121DBA
:100300005CBF51F8043B40F8043BAFF30080D207D8
:1003100024BF11F8013B11F801CB48BF11F8012BA4
:1003200024BF00F8013B00F801CB48BF00F8012BC7
:10033000704710B5203AC0F00B80B1E81850203A51
:10034000A0E81850B1E81850A0E81850BFF4F5AF75
:100350005FEA027C24BFB1E81850A0E8185044BFFF
:1003600018C918C0BDE810405FEA827C24BF51F86C
:10037000043B40F8043B08BF7047D20728BF31F860
:10038000023B48BF11F8012B28BF20F8023B48BFB1
:1003900000F8012B70474FF000020429C0F01280D2
:1003A00010F0030C00F01B80CCF1040CBCF1020F28
:1003B00018BF00F8012BA8BF20F8022BA1EB0C01FD
:1003C00000F00DB85FEAC17C24BF00F8012B00F8F3
:1003D000012B48BF00F8012B70474FF0000200B519
:1003E000134694469646203922BFA0E80C50A0E858
:1003F0000C50B1F12001BFF4F7AF090728BFA0E806
:100400000C5048BF0CC05DF804EB890028BF40F8D1
:10041000042B08BF704748BF20F8022B11F0804F13
:1004200018BF00F8012B704710B5044610F0030FF9
:1004300008BF11F0030F40F015804FF0013E121F6E
:10044000C0F20E8051F8043BA3EB0E0C2CEA030C17
:100450001CEACE1C08BF40F8043BF0D0A1F1040117
:1004600002F10402521E08DB11F8013B002B00F8D8
:10047000013BF7D11146FFF78EFF204610BD7047B4
:10048000704770477047754600F02CF8AE4605007F
:100490006946534620F00700854618B020B5FFF79F
:1004A000A5FEBDE820404FF000064FF000074FF0DA
:1004B00000084FF0000B21F00701AC46ACE8C00982
:1004C000ACE8C009ACE8C009ACE8C0098D4670478B
:1004D00010B50446AFF300802046BDE81040FFF79A
:1004E00070BE000000487047F41700202DE9F0416D
:1004F000044622480D4686B0016841F002010160C1
:100500000068642D00F00200059000D363254FF4CD
:1005100080760120CDE90060002002900320184F72
:1005200003906946384600F06FFBB846C5F1640792
:100530000FE001223146404600F031FC284600F031
:100540002DF800223146404600F029FCB8B200F0F8
:1005500025F8641EE4B2ECD21120CDE9006002203F
:10056000029069464446404600F04EFB0022314668
:10057000204600F014FC06B0BDE8F0811C380240B3
:1005800000040240FEE7704710B50446042001F065
:1005900066FB0148046010BD2000002070B50546D0
:1005A00000244FF47A7603E0304600F005F8641C2E
:1005B000AC42F9D370BD000070B54FF0E0240022CA
:1005C00065690949A36909684843A1699942FCD052
:1005D00002D2A3EB010302E0A5EB010633441A4467
:1005E0000B468242F1D370BD20000020054B184419
:1005F00004E000BF10F8013B01F8013B521E92B22B
:10060000F8D2704700000808074810B5016849058E
:1006100008D50415046002F033FB2046BDE8104005
:1006200000F0F0BA10BD0000140401400749002298
:100630004A6107490B6843F400730B600B6843F091
:1006400008030B6020F0FF00026070471C020020CE
:10065000043C02400A4610B50146002000F0C4F9EF
:100660000149087010BD000004000020134A002159
:100670001068C305124804D5416941F00201416187
:10068000911513689B0505D5436943F00103436148
:1006900041F4007113681B0505D5436943F0040359
:1006A000436141F4006113689B0405D5436943F03D
:1006B0001003436141F4005111607047183C02403F
:1006C0001C02002070B5054600F06EFB0646134C78
:1006D00009E0681C07D025B100F066FB801BA8422A
:1006E00001D9032070BD2068C007F2D120688007BF
:1006F00001D5022020602068C00508D420680005CC
:1007000005D42068800402D42068800503D5FFF753
:10071000ADFF012070BD002070BD0000183C0240FC
:1007200070B515460C46064604E0304600F014F855
:1007300004F8010B6D1EF8D270BD000070B51546AF
:100740000C46064605E000BF14F8011B304600F0D9
:1007500020F86D1EF8D270BD10B5D0E90341A1425A
:1007600002D14FF0FF3010BD036882689B5C521CC1
:100770008260A24201D100228260491C01611846B8
:1007800010BD02600022C0E904124260C0E90221EB
:10079000704702697AB1D0E90023D1544168491CFD
:1007A0004160C268914201D1002141600169491E46
:1007B000016100207047416941F0010141614FF042
:1007C000FF30704708B500218DF800100146012266
:1007D000684600F079F89DF8000008BD08B50146AC
:1007E0000222684600F070F89DF800009DF80110A4
:1007F00040EA012008BD08B501460422684600F021
:1008000063F89DF800009DF8011040EA01209DF872
:10081000021040EA01409DF8031040EA016008BD63
:1008200001480078704700001C00002070B5134894
:10083000114900F10C0301604FF482714160002105
:1008400002220124816083E81600120282611822CC
:10085000C0E90721416281620A21C16200F0BEFF46
:10086000074D00B12C7000F085F800F05BF80549E9
:10087000884200D02C7070BD003001406002002022
:100880001C0000201440C80070B50D4800780028F6
:1008900014D10C4D4FF4805400222146284600F01C
:1008A0007EFAB92000F07EF801222146284600F0A9
:1008B00076FABDE870400320FFF77EBE70BD0000F1
:1008C0001C000020000402402DE9F041DFF85080B8
:1008D00014460D4606464FF48057002239464046DE
:1008E00000F05DFA032000F05DF8C5F3074000F06A
:1008F00059F8C5F3072000F055F8E8B200F052F8B7
:1009000004E0FF2000F04EF806F8010B641EA4B2CC
:10091000F7D239464046BDE8F041012200F03FBA27
:10092000000402402DE9F041114F4FF4805600229F
:100930003146384600F033FA9F2000F033F8FF20AC
:1009400000F030F80546FF2000F02CF80446FF20A8
:1009500000F028F8804601223146384600F01FFAA0
:10096000280440EA042040EA0800BDE8F0810000C5
:100970000004024070B50A4D4FF480540022214615
:10098000284600F00CFAAB2000F00CF801222146BA
:10099000284600F004FABDE870400520FFF70CBEC1
:1009A000000402400EB500218DF808004FF4FA70E3
:1009B0008DF804100090012301AA02A9044800F058
:1009C000F5FF10B1FF208DF804009DF804000EBD66
:1009D000600200200348016841F00101016000202D
:1009E00070470000043C02402DE9F04706463448B9
:1009F0000C461546017C01290BD00121814601746A
:100A00004CF250373846FFF75DFE4FF0000A18B140
:100A100012E00220BDE8F087C9F814A0022E0ED023
:100A2000012E13D0D6B1DFF89C80042E21D0082EE1
:100A30002CD0102E37D0012089F810A0EAE73846D4
:100A4000FFF740FE0028F7D125600EE0ADB2384632
:100A5000FFF738FE0028EFD1258006E0EDB23846DA
:100A6000FFF730FE0028E7D125703846FFF72AFE51
:100A7000E2E7EDB23846FFF725FE0028DCD1D8F8D2
:100A8000001021F48071C8F80010EDE7ADB23846CF
:100A9000FFF718FE0028CFD1D8F8001021F480719C
:100AA000C8F80010D8E73846FFF70CFE0028C3D17D
:100AB000D8F8001021F48071C8F80010C4E70000D5
:100AC0001C020020043C024006480068C00707D012
:100AD000044805490830016004490160002070475E
:100AE00001207047043C0240EFCDAB8905040302AE
:100AF0002DE9F0471C4E05460F46307C012808D0F2
:100B0000012030744CF250384046FFF7DBFD18B13D
:100B100027E00220BDE8F0874FF0FF313960C14681
:100B2000DFF848806C6816E02046FFF77FFD4846F6
:100B3000FFF7C8FDD8F8002022F00802C8F800200E
:100B4000D8F8002022F40072C8F8002008B13C60F8
:100B500007E004F58074D5E9011201EB0221A142FE
:100B6000E2D800213174D5E71C020020043C024089
:100B70000348016841F00201016000207047000055
:100B8000043C02402DE9F0410C4C16460F46207CF7
:100B9000012809D0012020744CF250384046FFF75C
:100BA00091FD002518B107E00220BDE8F0816561E4
:100BB0003E604046FFF786FD2574F6E71C020020E4
:100BC0000B480168890710D50068C00705D00848A0
:100BD00008490830016008490160054807490C30A0
:100BE0000160074901600020704701207047000044
:100BF000043C0240EFCDAB8905040302BFAE9D8CDF
:100C000016151413704700002DE9F84FDFF864B192
:100C100000234FF0010C4FF0030A4FF00F090BF1C6
:100C2000040EA0E00CFA03F6324072D04C68022C9D
:100C300001D0122C0ED1DC0800EB8408D8F820403B
:100C40005D07EF0E09FA07F5AC430D69BD4025437A
:100C5000C8F8205007685D0091F804800AFA05F48E
:100C600008F00308A74308FA05F848EA0708C0F89F
:100C700000804F68012F05D0022F03D0112F01D023
:100C8000122F11D18768D1F80C80A74308FA05F814
:100C900048EA0708C0F808804768B7430E79C6F3EA
:100CA00000169E403E434660C668A6438C68AC4032
:100CB0003443C4604C68E40054D52F4C256845F09B
:100CC00001052560246823F0030504F00104009465
:100CD0002A4C2544AF689C07240F09FA04F6B74351
:100CE000274EB04201D1002615E0264EB04201D178
:100CF000012610E0244EB04201D102260BE0234E23
:100D0000B04201D1032606E0214EB04202D10426B2
:100D100001E027E00526A6403E43AE60DBF8004038
:100D20005D464E689443F60300D514432C60DEF80C
:100D3000004075464E689443B60300D514432C60BA
:100D40000C4D08352C684E689443F60200D51443C8
:100D50002C60084D0C352C684E689443B60200D5C3
:100D600014432C605B1C0A6832FA03F47FF45AAF18
:100D7000BDE8F88F00040140203802400000014027
:100D8000000002400004024000080240000C024043
:100D9000001002400069084000D0012070470AB1ED
:100DA000816170470904FBE7014800687047000053
:100DB0000000002070B5040011D021684CF6CC4032
:100DC0000860216845F255500860D4E9000141608F
:100DD0002168A0688860FFF7E7FF054609E0012069
:100DE00070BD00BFFFF7E0FF401B302801D9032092
:100DF00070BD2068C0680028F4D121684AF6AA2096
:100E00000860002070BD00684AF6AA210160002039
:100E10007047000002480168491C016070470000EB
:100E200000000020094810B5016841F0040101608C
:100E3000016841F002010160052000F0AFF80F20C9
:100E400000F006F800F018F8002010BD003C024049
:100E500010B5044607484FF47A710068B0FBF1F012
:100E600000F009FF00222146501E00F077F8002014
:100E700010BD00006C00002070B5284C86B02068C2
:100E800040F001002060206800F00100059020681B
:100E900040F002002060206800F002000590206809
:100EA00040F004002060206800F0040005902068F5
:100EB00040F0200020602068032500F0200005900D
:100EC00049F6FF70CDE900050020029003906946C5
:100ED0001348FFF799FE4FF6FF76694611480096D2
:100EE000FFF792FE694610480096FFF78DFE6946AF
:100EF0000E480095FFF788FE206820F00100206072
:100F0000206820F002002060206820F004002060AB
:100F1000206820F02000206006B070BD1C38024020
:100F20000000024000040240000802400014024099
:100F300000F01F02012191404009800000F1E020F3
:100F4000C0F88011704700F01F0201219140400954
:100F5000800000F1E020C0F800117047F0B40E4BA3
:100F60001B680C46C3F30223C3F10705042D00D907
:100F70000425191D072901D2002300E0DB1E0126EC
:100F800006FA05F1491E214099409E40761E164002
:100F90003143F0BC00F0AABE0CED00E0064900F0C1
:100FA000070208684FF6FF03184040EA0220034A90
:100FB00010430860704700000CED00E00000FA05E7
:100FC000BFF34F8F05480168054A01F4E061114302
:100FD0000160BFF34F8F00BFFDE700000CED00E0A4
:100FE0000400FA052DE9F047DFF8BC8105460E46FE
:100FF000D8F8000000F00100B04214D2012E05D153
:10100000D8F8001041F00401C8F80010D8F800101A
:1010100021F001013143C8F80010D8F8000000F0B9
:101020000100B04271D12878604C800705D5206856
:10103000A96820F0F000084320602878C00771D02C
:101040005A4A5A4B69680120083A2C33022910D0B9
:1010500003292ED001292FD05FEA402797FAA7FC59
:10106000BCFA8CFC4CF0200C5FEA5C1C04D01268CB
:1010700003E04FF40037F1E71A6897FAA7F3B3FAE1
:1010800083F303F01F039840024262D0206820F0EF
:10109000030008432060FFF787FE6968074641F2B6
:1010A0008830022910D003291CD00129814626D07E
:1010B00034E04FF00077D1E70227CFE7FFF774FE67
:1010C000C11B494501D926E081462068C0F3810053
:1010D0000228F3D126E000BFFFF766FEC11B494599
:1010E00001D918E081462068C0F381000328F3D1BC
:1010F00018E000BFFFF758FEC11B49450BD8206818
:10110000C0F381000128F5D10CE022E0FFF74CFE8E
:10111000C11B494502D90320BDE8F087206810F0C3
:101120000C0FF3D1D8F80010404601F00101B14294
:1011300011D9012E03D1016841F004010160016859
:1011400021F0010131430160006800F00100B0426C
:1011500001D00120E0E72878400705D52068E9683C
:1011600020F4E060084320602878000706D5206856
:10117000296920F4605040EAC100206000F054F872
:101180002168F02292FAA2F201F0F001B2FA82F2A2
:10119000D140074A515CC840064908600F20FFF75C
:1011A00057FE0020B8E70000003C0240083802402B
:1011B000FD3400086C000020164810B5016841F4A9
:1011C00080710160134908310A6822F003020A6045
:1011D0000268114B1A40026000220A60001D01687B
:1011E0000E4B194041F42041016001684FF4F8545E
:1011F00094FAA4F41023B4FA84F421F4F851A3402F
:101200001943016003480C30026006490448086035
:1012100010BD000000380240FEFFFAEEFF1FFF0085
:1012200068FF1F006C0000201E4A116801F00C00CE
:10123000042813D0082813D00C2813D0101F0068DE
:1012400000F460414FF4604090FAA0F0B0FA80F0F2
:10125000C1404FF40040491C884070471248704715
:10126000124870474FF4701393FAA3F301F470100F
:10127000B3FA83F3D8400E4B01F440011268185CB6
:101280004FF4400393FAA3F3B3FA83F3D940491C14
:10129000D20301D5054A00E0034A5043B0FBF1F008
:1012A00070470000083802400024F40000127A0061
:1012B000F43400082DE9F84F06460078DFF8F8838B
:1012C000FE4FFF4D80074FF0000A4FF002094FF02C
:1012D00001045DD5F94808300168C1F38101012995
:1012E00007D00168C1F3810103291BD10068C00345
:1012F00018D499FAA9F0B0FA80F040F02000400923
:1013000001D0386800E0286899FAA9F1B1FA81F1B2
:1013100001F01F0104FA01F108422AD0F068012807
:101320007ED126E0F068A0B394FAA4F0B0FA80F081
:1013300048F82040FFF738FD834605E0FFF734FD0D
:10134000A0EB0B0002286CD899FAA9F0B0FA80F053
:1013500040F02000400901D0386800E0286899FA80
:10136000A9F1B1FA81F101F01F0104FA01F108427B
:10137000E4D0D248001D01684FF4F85393FAA3F368
:101380003269B3FA83F321F4F8519A4011430160B2
:1013900025E0FFE794FAA4F1B1FA81F148F821A021
:1013A000FFF702FD834605E0FFF7FEFCA0EB0B0014
:1013B0000228C8D899FAA9F0B0FA80F040F02000CD
:1013C000400901D0386800E0286899FAA9F1B1FA1B
:1013D00081F101F01F0104FA01F10842E4D13078F3
:1013E000000755D5706958B394FAA4F0B0FA80F0AC
:1013F00008EB8000C0F88046FFF7D6FC834605E086
:10140000FFF7D2FCA0EB0B0002289CD899FAA9F0B8
:10141000B0FA80F040F04000B4EB501F04D101E07E
:1014200052E1DFE0386800E0286899FAA9F1B1FAE2
:1014300081F101F01F0104FA01F21042E0D027E02F
:1014400094FAA4F0B0FA80F008EB8000C0F880A60F
:10145000FFF7AAFC834605E0FFF7A6FCA0EB0B0014
:101460000228A6D899FAA9F0B0FA80F040F040001E
:10147000B4EB501F01D1386800E0286899FAA9F14F
:10148000B1FA81F101F01F0104FA01F21042E3D137
:10149000307840076FD5DFF828B24FF00009ABF184
:1014A000100BDBF80000C0000CD4DBF8001041F09A
:1014B0008051CBF80010DBF800004FF0010900F07C
:1014C000805000907F480168C90511D4016841F43B
:1014D00080710160FFF768FC009005E0FFF764FC95
:1014E0000099401A64287DD876480068C005F5D573
:1014F000B06801280AD008B1052811D0286820F466
:1015000080702860286820F4806002E0286840F439
:1015100080702860B06850B3FFF746FC00900DE083
:10152000286840F480602860F0E700BFFFF73CFCCB
:101530000099411A41F28830814253D84FF400712A
:1015400091FAA1F0B0FA80F040F04000B4EB501FE7
:1015500001D1386800E0286891FAA1F1B1FA81F16F
:1015600001F01F0104FA01F21042DFD024E0FFF77E
:101570001BFC009008E028E0FFF716FC0099411AD8
:1015800041F2883081422DD84FF4007191FAA1F0D8
:10159000B0FA80F040F04000B4EB501F01D1386841
:1015A00000E0286891FAA1F1B1FA81F101F01F0180
:1015B00004FA01F21042DFD1B9F1000F05D0DBF8D7
:1015C000001021F08051CBF80010706AE8B3DFF80A
:1015D000ECB00BF1080BDBF80010C1F3810103291B
:1015E00072D000E083E002284FF080714FF0007964
:1015F00050460BD091FAA1F1B1FA81F148F82100DF
:10160000FFF7D2FBB84606464F4673E04FF08071B5
:1016100091FAA1F1B1FA81F1C24648F82100FFF731
:10162000C3FB80464F4605E0FFF7BEFBA0EB08007A
:1016300002285CD897FAA7F0B0FA80F040F02000BA
:10164000400903D01D48006801E069E0286897FA66
:10165000A7F1B1FA81F101F01F0104FA01F108428A
:10166000E2D1D6E90A10326BDBF80030014323F4F3
:101670007D031A431143CBF800104FF0807090FAAD
:10168000A0F0B0FA80F04AF82040FFF78DFB064644
:10169000DFF8288005E000BFFFF786FB801B0228EB
:1016A00025D897FAA7F0B0FA80F040F02000400962
:1016B0000BD0D8F8000009E0000047420038024093
:1016C00034380240007000402CE0286897FAA7F1F7
:1016D000B1FA81F101F01F0104FA01F10842DBD0F7
:1016E0001EE000BFFFF760FB801B022802D9032029
:1016F000BDE8F88F97FAA7F0B0FA80F040F020002C
:10170000400902D0D8F8000000E0286897FAA7F155
:10171000B1FA81F101F01F0104FA01F10842E1D1AF
:101720000020E5E70120E3E7704700000068044976
:10173000884204D10348016841F004010160704708
:10174000002800400070004010B504460068C068E2
:10175000400509D52046FFF7E9FF2068C16801F080
:10176000800161F49061C16003494FF4801008600A
:101770000120607710BD0000140401407047000094
:1017800010B5044600688168C9040CD5C068C0055E
:1017900009D52046FFF7F2FF2068C16801F08001FB
:1017A00061F4C071C1602068816889040CD5C0688B
:1017B000800509D52046FFF7B7FF2068C16801F012
:1017C000800161F42071C16003494FF4003008606A
:1017D0000120607710BD00001404014070B50400C2
:1017E00004D094F85100002510B106E0012070BD2E
:1017F00084F85050204600F02FF8022084F8510061
:101800002068016821F040010160D4E9010108432A
:10181000D4E903121143084361690843218B01F4A1
:1018200000710843E1690843216A0843A16A08433B
:1018300021680860A069042101EA1040616A084338
:10184000216848602168E06A08616565012084F8C4
:101850005100002070BD00002DE9F04F07464F4CAD
:101860004D48251D0526DFF838918BB04FF0200A32
:101870004FF002084FF0030B874236D1206840F04A
:1018800001002060206800F001000A90206840F00C
:1018900001002060206800F001000A90206840F0FC
:1018A00001002060206800F001000A90286840F4E0
:1018B00080502860286805A900F480500A90CDE97E
:1018C00005A80996CDE9078B4846FFF79DF940200A
:1018D000059005A909964846FFF796F980200590DE
:1018E00005A909964846FFF78FF92E48874250D13F
:1018F000206840F002002060206800F002000A909A
:10190000206840F001002060206800F001000A908B
:10191000206840F001002060206800F001000A907B
:10192000206840F001002060206800F001000A906B
:10193000286840F48050286028684FF4805400F4F0
:1019400080500A900127184DCDE900476946CDF82F
:101950000CB02846FFF758F9CDF800A00496CDE961
:10196000018769464F464846FFF74EF980200090B0
:10197000694604963846FFF747F9402000906946CB
:1019800004963846FFF740F9012221462846FFF722
:1019900006FA0BB0BDE8F08FDC1200201C380240C4
:1019A0000000024060020020000402402DE9F843DC
:1019B0000025DDF820800446ADF8005090F8510075
:1019C000012803D094F8510022287DD169B162B179
:1019D0005BB194F85000012876D0012684F850605D
:1019E00094F85100012803D005E00120BDE8F883F8
:1019F000322084F851006565A263A387E3872163E1
:101A0000A386E386A564E564A06A4FF40057B84254
:101A100009D12068016821F4005101602068016843
:101A200041F40051016020680168490603D401684F
:101A300041F040010160E0684FF48271B0F5006F41
:101A4000606807D0002867D088426ED1E08E0128F8
:101A500062D06AE020B188420CD1E08E012809D121
:101A6000206B21680088C860206B801C2063E08E9A
:101A7000401EE086E08E40BBA06AB84244D1206898
:101A8000016841F4805101603EE02068C068A16BAC
:101A90000880A06B801CA0639EE0434600220221C8
:101AA000204600F0C7F9002874D1206B2168008817
:101AB000C860206B801C2063E08E401EE086E08EB4
:101AC00050B9A06AB84201E0C7E017E004D120682D
:101AD000016841F480510160434600220121204603
:101AE00000F0A8F900286FD12068C068A16B0880B9
:101AF000A06B801CA063E08F401EE087E08E002872
:101B0000CBD1606800286AD14346002201212046DB
:101B100000F090F9F0BBB8E7206B411C216321680D
:101B20000078C860E08E401EE086E08E98BBA06A18
:101B3000B84204D12068016841F4805101604346F5
:101B400000220121204600F075F918BB2068C0680A
:101B5000A16B087040E0434600220221204600F0BD
:101B600069F9B8B9206B411C216321680078C8600D
:101B7000E08E401EE086E08E38B9A06AB84204D1FB
:101B80002068016841F48051016000224346012130
:101B9000204601E018E00BE000F04CF9A0B9206805
:101BA000C268A06B411CA1630270E08F401EE087F9
:101BB000E08E0028CFD1606888B943460022012119
:101BC000204600F037F908B103200FE72068C1680C
:101BD000A06B421CA2630170E08F401EE087A06AE8
:101BE000B84210D1434600220121204600F022F9DC
:101BF00018B1606D40F002000FE02068C068ADF8D9
:101C00000000BDF80000434601228021204600F07C
:101C100011F920B1606D40F020006065D4E784F8D0
:101C20005160A06AB84214D120688168C943C906CE
:101C30000FD4616D41F002016165016821F400512A
:101C400001602068016841F40051016084F850503F
:101C5000CBE684F850500020C8E60220C6E64FF0DC
:101C6000E0210428086903D020F0040008617047CF
:101C700040F00400FAE710B5401EB0F1807F01D3B8
:101C8000012010BD4FF0E02460610F21601700F0CB
:101C90002DF80020A06107202061002010BDFEE784
:101CA0000148FFF7B0B8000034020020044A034B9B
:101CB0001360C2E901011046FFF77CB80030004014
:101CC0003402002008B5016800BF064A1140B1F196
:101CD000005F05D141680091006880F3088888475B
:101CE000012008BD0000F02FFEE770470907090E2C
:101CF000002806DA00F00F0000F1E02080F8141D43
:101D0000704700F1E02080F8001470477047000031
:101D100070B52D4C8CB0206840F001002060206828
:101D2000A51500F001000A900120CDE90550002022
:101D300007900320254E089005A93046FEF764FF62
:101D4000012229463046FFF72AF8206840F00200B9
:101D50002060206800F002000A90206840F0020035
:101D6000206020681A4C00F002000A904020009089
:101D70001120019069462046FEF746FF8020009022
:101D800069462046FEF740FF002240212046FFF72B
:101D900006F8002280212046FFF701F840F6B8300F
:101DA000FEF7FCFB002229463046FEF7F8FF012231
:101DB00040212046FEF7F3FF012280212046FEF756
:101DC000EEFF0CB070BD00001C3802400000024065
:101DD000000402400148FFF7D3BC0000400200208D
:101DE0000148FFF7B1BC0000400200200F4810B5C9
:101DF000016886B041F00201016000680C4C00F0FF
:101E0000020005900820009001200190002002901F
:101E10000320039069462046FEF7F6FE00220821C3
:101E20002046FEF7BCFF06B010BD00001C38024083
:101E3000000402402DE9F0471D4690460E46044638
:101E4000FEF7B2FF07465FEA08004FF000084FF4C4
:101E5000005A4FF0010926D034E0681C23D025B188
:101E6000FEF7A2FFC01BA8421DD92068416821F0DF
:101E7000E00141602068016821F040010160A06A32
:101E8000504509D12068016821F4005101602068A3
:101E9000016841F40051016084F8519084F8508049
:101EA0000320BDE8F0872068806836EA0000D4D1BE
:101EB0000DE0681C06D0002DD7D0FEF775FFC01BC3
:101EC000A842D2D82068806836EA0000F1D000200D
:101ED000E7E7704770B594B00D460646FFF76CF91A
:101EE000012103910220102109AA009000240C95E1
:101EF000049182E851006846FFF7DCF900B1FEE783
:101F00001148016841F080510160006800F0805084
:101F100012900E48016821F4C05141F40061016043
:101F20004168C943C906FBD50F200D900320CDE9B8
:101F30000E04109401210DA81194FFF753F8002806
:101F400000D0FEE714B070BD24380240007000409D
:101F500010B5FEF75FFF00F021F8BDE8104000F07B
:101F600007B8000001488068704700000C0000209E
:101F700010B5FEF719FF08494A68904202D9831A42
:101F8000642B03D8D3431844642804D3C868401C86
:101F900064324A60C86010BD0C00002010B5FEF726
:101FA00003FF0A494FF47A730A68904202D9841AEF
:101FB0009C4203D8D4432044984205D3886802F554
:101FC0007A72401C0A60886010BD00000C0000207E
:101FD0000F48016841F4807101600D4908310A68B9
:101FE0000C4B1A400A6002680B4B1A4002600268F0
:101FF00022F480220260086820F47D00086000203E
:10200000091D086005494FF0006008607047000036
:10201000003802400CC0FF88FEFFFEEE08ED00E035
:102020000278002162F30701427862F30F2182787F
:10203000C07862F3174160F31F61084670472DE9CD
:10204000F04115460E460746002405E0315D38197B
:10205000FEF700FB641CE4B2AC42F7D3BDE8F081AC
:10206000FEF7F8BA704770477047FEE77047000008
:10207000002210B51146104600F000FD114CA07969
:10208000000708D5012000F0A1FC022000F0E2FCCE
:10209000082000F09BFCA078810601D5202010BD0F
:1020A000C10601D5102010BD000702D5022000F0A6
:1020B000D1FCA078810701D5022010BDC007FCD05B
:1020C000012010BDD017002001B582B000208DF88E
:1020D000040064200090012301AA02A90248FFF72E
:1020E00065FC9DF804000EBDDC12002010B504460E
:1020F000FEF73EFD2046BDE81040FFF7E3BD0000BF
:1021000088B02022FAA16846FEF713F9FEF78AFE8E
:102110004FF400010811FFF7DDFE4FF47A6106204D
:10212000FFF7C4FDFFF7BCFDFFF760FE2020FEF7C0
:102130002BFAFFF7EDFDFEF779FBFEF7A5FB00F0AC
:10214000D7FEF44CF2486062192000F085FD00F0E3
:1021500043FDF14D4FF0020B4FF00308012865D00D
:10216000032860D0042861D085F800B000F02EFD6F
:10217000074628210120FEF7B9F96420FEF70EFA80
:1021800014210220FEF7B2F96420FEF707FA282195
:102190000120FEF7ABF96420FEF700FA14210220BB
:1021A000FEF7A4F96420FEF7F9F928780A26303002
:1021B0008DF80D0097FBF6F030308DF8150097FB89
:1021C000F6F006FB107030308DF8160032208DF8D6
:1021D000050035208DF80600FEF722FB40B30020F5
:1021E00030308DF81C00684600F0C2FF00BF072F9A
:1021F00006DDF8071ED085F800B0642F00DD072744
:102200007F1CF8B200F0F6FC2878DFF810A34FF43A
:102210006179022806D0042875D000F063FE60B111
:1022200085F800B0AAE185F800809FE728709DE757
:102230000120D5E785F80080DFE700F059FE012096
:102240008AF8000000F04DFFB549DFF8D8B2086009
:1022500034E0C82040F2E6310F467F1EFDD1401E1B
:10226000FAD1FFF71DFD00F0E3FFFEF79DFDB0FB87
:10227000F8F208FB120064214843FEF78FF901F0E1
:1022800021F90120FEF78AF900F0ACFF7F1C4F45D1
:10229000F7DBFFF767FE782805D38AF80080FEF7A2
:1022A00067FCFEF78DFEFFF75DFEB0FBF6F106FB67
:1022B000110018B914210120FEF718F99BF800004D
:1022C0000028C6D128784FF4FA7B012804D00328CF
:1022D00075D00428A0D051E14FEA0A0700F082FF30
:1022E0003878E0B3022804D0012825D004284ED045
:1022F00056E000F077FFFFF735FE484504D300BFF6
:1023000087F8008048E0DBE0FFF72CFE054600F090
:1023100063FF1E30854204D900F05EFF08B100BFA4
:10232000EEE7FFF71FFE054600F056FF0A30854234
:1023300036D900F07DFF33E000F07AFF5D460120E2
:10234000FEF72CF900F04EFF6D1EF8D1FEF72CFDC4
:10235000B0FBF8F208FB12006421484300E00FE0F4
:10236000FEF71CF901F0AEF85D460120FEF716F904
:1023700000F038FF6D1EF8D1FFF7F4FD78280FD379
:10238000022000F04BFC606A00F0DEFF08E000BFB6
:1023900042F21070FEF702F9FEF7EAFBFEF710FEBC
:1023A000FFF77EFCFFF7DEFDB0FBF6F106FB110048
:1023B000002893D114210120FEF798F88EE72BE036
:1023C00000F036FFDA465F460120FEF7E7F800F03E
:1023D00009FF7F1EF8D1FEF7E7FCB0FBF8F208FB1F
:1023E000120064214843FEF7D9F801F06BF8574614
:1023F0000120FEF7D3F800F0F5FE7F1EF8D1FFF7BD
:10240000B1FD484505D385F80080FEF7B1FBFEF726
:10241000D7FDFFF745FC46E0554628780128CFD088
:10242000022803D018B3042828D030E000F0DAFEE8
:10243000FFF798FD484502D385F8008023E0FFF7B9
:1024400091FD074600F0C8FE1E30874204D900F017
:10245000C3FE08B100BFEFE7FFF784FD074600F0B9
:10246000BBFE0A30874212D900F0E2FE0FE00220E4
:1024700000F0D4FB606A00F067FF08E000BF42F2A2
:102480001070FEF78BF8FEF773FBFEF799FDFFF770
:1024900007FCFFF767FD484505D385F80080FEF788
:1024A00067FBFEF78DFDFFF75DFDB0FBF6F106FB68
:1024B00011000028B1D114210120FEF717F8ACE774
:1024C000FEF7AEF9012859D02820FEF731FDFEF7BE
:1024D00051FAFEF7ABF90020FEF774F9552823D026
:1024E0004FF48020FEF76EF955282BD042E0000013
:1024F000426F6F742D2D2D2D6D6F64652D2D2D6305
:102500006F756E742D2D2D2D6E6F722D2D2D00007B
:102510000038000824000020F8010020EE0100200F
:1025200008020020EC0100200120FEF764F9A06100
:102530000520FEF753F920800720FEF74FF9608051
:1025400009200FE00F48FEF756F9A0610D48001D65
:10255000FEF744F920800B48801DFEF73FF96080AC
:1025600008480830FEF73AF9A0802288616AA0691D
:1025700000F086F81E211420FDF7B8FF606A00F015
:10258000E3FE9FE6010004002DE9F0478A468178CA
:1025900000270909C67886B0012902D0042955D040
:1025A00055E0DFF8CC90DFF8CC80334C00F1080523
:1025B000012E17D12078A8B9032000F02FFBD8F8FE
:1025C000001021F47F426979891E616142EA01218C
:1025D000C8F80010494505D3434604220021274886
:1025E00000F020FFD8F800C0CC4503D2012006B08F
:1025F000BDE8F0876068C11700EB116121F0FF01B1
:10260000411AB14223D0C1012B468022604600F01E
:1026100009FF30B12069401C01272061FF2E07D03F
:1026200009E06068401C6060A0688030A060F5E749
:102630002078401C20706068C11700EB116121F008
:10264000FF01401AB04202D0012700E0022700201B
:1026500002A9CDE9001053463246032100F0AAFE3C
:102660009DF8081002A800F037FD3846BFE70000CB
:102670000038000848000020FC0100200037000856
:102680002DE9F041384C804600201746A060E060FC
:1026900022616061354A4FF40061A2F11800FEF733
:1026A00070F8324D324E183D31E017D0A1882869BC
:1026B000884213DBFEF7BAF8A168628801FB028149
:1026C000A2882C48FEF700F9A068401CA060A288F0
:1026D00028497F1EA1F61800FEF730F8D5E903015E
:1026E000401A802811DB24498022A1F61840FEF709
:1026F00017F8E068204BC1018022304600F092FEBE
:10270000E068401CE06000F039F8FFF7C9FA002FDC
:10271000CBD1D5E90301A0EB01008028DEDAD5E9B1
:102720000310081A606100281BDD62691249A1F6D6
:102730001840FDF7F5FF60690F49FF2201E00A54D8
:10274000401C8028FBDBE0680B4BC1018022304637
:1027500000F068FEE068401CE060BDE8F04100F079
:102760000DB8BDE8F081000024000020D002002058
:1027700000380008D00A0020D00E00201B4830B4DA
:10278000C1684FF448525143026983885A43B1FBF0
:10279000F2F16422B1FBF2F200F1280130320A7545
:1027A000C2684FF448535A43036984886343B2FBB9
:1027B000F3F30A22B3FBF2F3B3FBF2F402FB14339C
:1027C00030334B75C3684FF44854634304698088C1
:1027D0004443B3FBF4F0B0FBF2F302FB13003030E0
:1027E000887530BC084600F0C3BC000024000020FF
:1027F0000149002008707047140200202DE9F041C3
:102800000F46064642F2107500F0A2F8442000F090
:10281000CFF800F0BDF80446FF280AD000F0B0F869
:1028200062206D1E401EFDD1002DEDD1FF2C07D082
:1028300009E01EB13946304600F0ADF800F0A0F8CE
:102840000249012008702046BDE8F08114020020F2
:1028500000210846FFF7D2BF2DE9F0410F4D1E467B
:10286000174680460A2439B909E000BFFFF7F0FF98
:10287000641E14F0FF0402D028780028F6D000F07F
:1028800067F8404600F094F83146384600F083F887
:1028900000F076F800202870BDE8F08114020020D6
:1028A0002DE9F0410E4607460A240C4D06E000BF14
:1028B000FFF7CEFF641E14F0FF0402D02878002832
:1028C000F6D000F045F83146384600F073F800F0D5
:1028D00057F800202870BDE8F081000014020020A5
:1028E00070B51C461546FFF7DBFF21462846BDE8BC
:1028F0007040FFF783BF00002DE9F0410F4D1E46E9
:10290000174680460A2439B909E000BFFFF7A0FF47
:10291000641E14F0FF0402D028780028F6D000F0DE
:1029200017F8404600F044F83146384600F042F8C7
:1029300000F026F800202870BDE8F0811402002085
:10294000012210210148FEF72ABA000000040240CB
:1029500000224FF400410148FEF721BA0000024076
:10296000002210210148FEF71ABA000000040240BC
:102970004FF480610148FEF70DBA000000040240E8
:102980000122D1030148FEF70ABA0000000002400C
:10299000FF20FFF799BB70B50C46054604E0FF2009
:1029A000FFF792FB04F8010B6D1EEDB2F7D270BD7C
:1029B000FFF78ABB70B50C46054603E014F8010B1F
:1029C000FFF782FB6D1EEDB2F8D270BD03493422D1
:1029D0000A7048700220FFF763BF0000E417002070
:1029E00070B51A4D0446002028602AE0641C1028A7
:1029F00025D80021164B04E014F8012B5A54491C29
:102A0000C9B28142F8D32968491C2960392900D10B
:102A100000BF00231A460E49FFF762FFFF2801D0CE
:102A2000022070BDFFF7A4FF58B9002211461046DE
:102A300000F024F8064814388079000701D50420F6
:102A400070BD20780028D1D170BD00001802002090
:102A5000E417002010B5084C152123462170607042
:102A6000022219461046FFF73BFFA4F1140021781B
:102A700001706178417010BDE417002010B50F4C53
:102A8000202323706070A170E2702346082219464B
:102A90000420FFF725FFA4F114002178017061786C
:102AA0004170A1788170E178C170217901716179FB
:102AB0004171A1798171E179C17110BDE4170020E4
:102AC00010B50E4C01202346207008221946FFF74E
:102AD00007FFA4F11400217801706178A27842EA1E
:102AE00001214160E17801722179627942EA012194
:102AF000C160A1790174E179417410BDE41700202F
:102B00000B46024600217720FFF7A6BE10B5FFF75F
:102B100017FF40F2E730401EFDD1FFF721FF40F2E2
:102B2000E630401EFDD1BDE81040FFF761BE000059
:102B30000FB40D4A10B511231370507091709DF8A9
:102B40001000D07005AB042005E000BF13F8044B63
:102B50001454401CC0B2491EC9B2F7D20249FFF753
:102B60009FFE10BC5DF814FBE4170020F0B4094C84
:102B7000DDE90456322727706070A170100AE070FA
:102B800022716371A571E6712146F0BC0820FFF740
:102B900087BE0000E417002030B4084B31241C70BD
:102BA00058709970100AD8701A7100205871987175
:102BB00030BC19460720FFF773BE0000E417002061
:102BC0000B46024600216620FFF796BE01480078BA
:102BD000704700007B040808014800787047000037
:102BE0000C04080800B50248FFF71AFAC0B200BD8D
:102BF000B904080810B50446FDF766FF05494FF40F
:102C00000060086021460448FFF72AFABDE810403A
:102C1000FDF7E0BE183C02407B04080810B50446EE
:102C2000FDF752FF08494FF400600860042207A135
:102C30000848FFF704FA07482146001DFFF710FA7D
:102C4000BDE81040FDF7C6BE183C024054434C445A
:102C5000000000000804080810B50446FDF734FF22
:102C600005494FF40060086021460448FFF7F8F971
:102C7000BDE81040FDF7AEBE183C0240280408082D
:102C80002DE9F843394DFFF7F3F920280CD002283D
:102C90000ED00026364C4FF0010810280CD0012829
:102CA00034D1E079A0B347E0BDE8F84300F0FEB8C6
:102CB000BDE8F84300F0E4B8A179207A091A491C6C
:102CC000CFB2E17929B329183846FFF719FF207AE6
:102CD00038442072A6702672E671FF20009000230F
:102CE000112202211220FFF723FF0021607800F05B
:102CF000E9FA284600F044FB10B11C4800F0F0F857
:102D0000FF212846FDF747FB84F80280BDE8F883E1
:102D10000BE017490120891DFFF7F2FE691CA0791D
:102D2000FFF7EEFEA0792870D4E729460120FFF7CF
:102D3000E7FE2878A0712672A179207A091A491C29
:102D4000C9B23029E2D3E17969B129185FF03000C6
:102D5000FFF7D6FE207A30302072E0790028D5D1F6
:102D600084F80780D2E7691C2F20F1E73413002094
:102D70007000002070B5114C0122491CE0602270E7
:102D8000C9B20D4D217100226271627991420AD956
:102D90006279891ACAB261790144607800F0A8FAB0
:102DA000617908446071A078002804D02078012857
:102DB00001D16D1EFBD270BD803801007000002073
:102DC0000D49002000EB400202EB801211F8222096
:102DD000012A05D0401C40B20228F3DB00207047D6
:102DE00000EB400303EB8010002201F8202001EBF0
:102DF0008000083070470000B81500202DE9F04130
:102E0000002501461D4E681E2C4600BF04EB4402FF
:102E100002EB841216F8223003B9204605EB450375
:102E200003EB851306EB820206EB830352685B68B3
:102E30009A4200D22546641C64B2022CE6DB0028CC
:102E400000DA284600EB400202EB801406EB840710
:102E500007F1080040F20112FDF726FA012006F8FA
:102E6000240005EB450000EB851006EB8001486867
:102E700078604868401C4860BDE8F081B8150020C3
:102E800010B5094C2079617988420BD96179401AD3
:102E9000C2B26179E0680144607800F029FA617992
:102EA0000844607110BD00007000002038B50B4C64
:102EB0002078002810D0002060712070FF20009042
:102EC0000023112202211220FFF732FE6078BDE8B4
:102ED0003840002100F0F6B938BD00007000002035
:102EE000FFF78CBF0148C0787047000070000020D9
:102EF00070B5FFF777FE24251E4C24280FD0FFF76E
:102F000071FE04281BD0FFF76DFE062817D0FFF7CF
:102F100069FE102813D0FFF765FE1A280FD06570E0
:102F200000F02CF800F0C4F9FFF7CAFD1248406821
:102F3000A0F58841383904D00120E07070BD607080
:102F4000EEE70020E07001E000F0B2F9094810302F
:102F5000FFF746FD0028F7D1002211461046FFF783
:102F60008DFD0021607800F0ADF92820FDF7EBFF22
:102F7000002070BD70000020D017002030B52D4813
:102F800087B02B4901601821C16100218160416136
:102F900007220161C0E90A12C1604FF400720162A8
:102FA000826141624FF482714160FEF717FC224852
:102FB000016841F002010160016801F00201059120
:102FC000016841F002010160016801F00201059110
:102FD000016841F0010101600068012400F0010076
:102FE00005904FF40040CDE90004032569460395A0
:102FF0001248FDF709FE10200395CDE90004104D9D
:1030000069462846FDF700FE0E48CDE90104A002FE
:10301000009069462846FDF7F7FD0022022128208E
:10302000FDF79CFF2820FDF783FF07B030BD0000AF
:1030300000300140DC1200201C3802400000024039
:1030400000040240000021102DE9F04105464078BF
:10305000002600F00701042903D002263046BDE80F
:10306000F0814009FAD104221049281DFDF7D1F85A
:103070000028F3D1A87802270D4CB7EB101F02D11E
:10308000287A2070EAE7A0780328E7D00749284685
:10309000FFF77AFAE070022803D020B10420A07074
:1030A000DCE70020FBE7A770D8E70000080200205B
:1030B000EC01002070B50C460546FFF781FE0100CB
:1030C00008D00878401CC2B222702846FDF7ECF800
:1030D000002070BD012070BD10B5FFF74BFE002031
:1030E00010BD08B50422694640F60440FDF77EFA9B
:1030F000BDF802009DF8011040BA61F31F409DF831
:10310000001040EA016008BD2DE9F0411F46DDE9ED
:103110000645034605F1090020706078002620F07E
:103120000700401D20F0E00040F020006070A07813
:1031300020F0F00040EA0110A07002B1E2702DB161
:103140002A46194604F10800FDF7AEF86760012031
:1031500005F1080104E0225C401C324496B2C0B282
:103160008842F8D3310A601901724672BDE8F081D5
:103170007CB50646174CFDF778F8C5B21E2D00D970
:103180001E25FFF7AFFE002823D1FFF7F7FE4FF013
:10319000FF302060012020713A2060712A463146BC
:1031A000A01DFDF741F9FFF79CFF034600F038F83A
:1031B0000246AD1DE8B2074D0521203DCDE9005086
:1031C0002046FFF7A1FF29782846BDE87C40FFF79D
:1031D00083BF7CBD58140020014880687047000000
:1031E000EC01002008B500208DF80000FFF77AFE02
:1031F000002810D169460848FFF75CFF00280AD173
:103200009DF800100448FFF71FFF002803D1FEF7C8
:10321000A9FE0249886008BDB8140020EC01002016
:1032200002494878421C4A7070470000EC010020B7
:103230007CB51D4CFFF756FE002833D1401E2060A0
:1032400001252571382060710020A0711920E071DE
:1032500033202072FFF746FE08B36572134DA8783D
:10326000A072FEF77FFE69680A3188421AD9FEF71C
:1032700079FE6860FFF735FF0346FFF7D1FF0A4D7F
:1032800002460B20203DCDE9005005212046FFF7E6
:103290003BFF29782846BDE87C40FFF71DBF022090
:1032A0006072DBE77CBD000058140020EC010020B8
:1032B00010B50024FFF72AFC4FF48050641C8442B0
:1032C000FCD310BD7CB500220C46054611461046C5
:1032D000FFF7D4FB0220FFF7BDFB08210320CDE957
:1032E00000010023224619462846FFF73FFC7CBD1B
:1032F000F8B5064614460D460320FFF767FB01208C
:10330000FFF7A8FB002211461046FFF7B7FB302C51
:1033100005D329463020FFF753FC302505E0671C14
:10332000F8B22946FFF74CFCFDB20023112202211E
:1033300012200094FFF7FCFB002280213046FFF7AB
:103340002BFC2846F8BD000009490A680949CA61F2
:1033500000BF824205D3084B9A4202D210460A624D
:1033600000E008620549086062B6FEF7BFBE0000D3
:1033700000370008240000200000020808ED00E0EB
:1033800030B5027800230121541E04E0455C491C3D
:103390002B449BB289B2A142F8DB921E0270421804
:1033A000405C527802EB0020984201D1012030BDF0
:1033B000002030BD2DE9F0411F46DDE906450346FA
:1033C00005F1090020706078002620F00700001D3C
:1033D00020F0E0006070A078012920F0F00040EAC1
:1033E0000110A07003D0032901D0042900D1E2709C
:1033F0002DB12A46194604F10800FCF755FF38683C
:103400006060012005F1080104E0225C401C3244A8
:1034100096B2C0B28842F8D3310A6019017246727E
:10342000BDE8F0812DE9F04717468246C819994654
:103430000D46C1F30F24CEB2B0F5003F02D90120F2
:10344000BDE8F087FDF7BCFB1B4940F20330086084
:103450006EB91A48002101600AEB04214160012184
:1034600081601749FDF744FB08B10320E8E7002419
:103470001CE000BF09EB040019F80410427801EBCE
:1034800002218278C078120402EB006001440AEB4A
:103490000500061988460A4631460220FDF772FBF0
:1034A0003068804501D00420CAE7241DBC42E1D326
:1034B000FDF75EFB0020C3E7183C0240D01200205D
:1034C0006800002000B585B0012102A8CDE9000107
:1034D0000022064B11460648FFF76CFF9DF80810C6
:1034E00002A8FFF7F9FD05B000BD000008020020AA
:1034F000F8010020030406080C101820300000001A
:103500000000000000010203040607080900000093
:1035100030350008000000201C02000030010008C7
:10352000783600081C0200203C1C00008C010008BA
:1035300001242296042202F4019019535049204696
:103540004C4153482055706772616465203A202DC4
:103550002D2D25CE48E801012449140702017701E9
:10356000C9C3800813130611120212521305111059
:103570000801036006110102570133081102041506
:103580000D111009130414430F1215091111051020
:103590000A03B4D2D2B40B111207100F800108FF36
:1035A000FF08021011120C082A0113303023010603
:1035B0003A3F11C2142911C2209E0D1112092C1F6D
:1035C0001B200C842D070F42409A11100E0D05117F
:1035D00020010CA70C112008180114080380100802
:1035E00010200D1120092210084B06D3A006D4028A
:1035F000160B1120072C142386D42BD3A02D280BB7
:1036000035E207112003381110100E2B40282E2808
:103610000B42A403D60301AA0180FF141A4CE12D2A
:1036200020014E400617510A1011210C280DFFC42D
:10363000307FF5B5B8DE0517160C11130C032315F2
:10364000FF491729114A181C49171508112204139C
:103650000814163D0B112307D00C34040B0407701B
:10366000031011300C150C11400810093E0AAAAACB
:08367000444420FE022F01007A
:04000005080000F5FA
:00000001FF
