:020000040800F2
:10000000301E0020D1010008531E0008071E000802
:10001000511E0008850500083F220008000000006E
:10002000000000000000000000000000A720000801
:100030008705000800000000751E00082521000843
:10004000EB010008EB010008EB010008BF1F0008EE
:10005000EB010008EB010008EB010008EB010008D0
:10006000EB010008EB010008EB010008EB010008C0
:10007000EB010008EB010008EB010008EB010008B0
:10008000EB010008EB010008EB010008EB010008A0
:10009000EB010008EB010008EB010008EB01000890
:1000A00000000000EB010008EB010008EB01000874
:1000B00039220008EB010008EB010008EB01000801
:1000C000EB010008EB010008EB010008EB01000860
:1000D000EB0100083B2200083D220008EB0100086C
:1000E00009060008BD1F0008EB010008EB0100082D
:1000F000EB01000800F002F800F05AF80AA090E8BE
:10010000000C82448344AAF10107DA4501D100F0D2
:100110004FF8AFF2090EBAE80F0013F0010F18BF45
:10012000FB1A43F0010318475835000078350000EA
:100130000A444FF0000C10F8013B13F0070408BF0D
:1001400010F8014B1D1108BF10F8015B641E05D0AB
:1001500010F8016B641E01F8016BF9D113F0080F60
:100160001EBF10F8014BAD1C0C1B09D16D1E58BFF2
:1001700001F801CBFAD505E014F8016B01F8016B29
:100180006D1EF9D59142D6D370470000002300249C
:1001900000250026103A28BF78C1FBD8520728BF97
:1001A00030C148BF0B6070471FB51FBD10B510BDF3
:1001B00000F069F91146FFF7F7FF02F08BF800F045
:1001C00087F903B4FFF7F2FF03BC02F039F800002F
:1001D0000948804709480047FEE7FEE7FEE7FEE7DB
:1001E000FEE7FEE7FEE7FEE7FEE7FEE70448054917
:1001F000054A064B70470000A5210008F5000008DD
:1002000030180020301E0020301A0020301A002044
:10021000704740EA010310B59B070FD1042A0DD3A4
:1002200010C808C9121F9C42F8D020BA19BA8842D7
:1002300001D9012010BD4FF0FF3010BD1AB1D30716
:1002400003D0521C07E0002010BD10F8013B11F84C
:10025000014B1B1B07D110F8013B11F8014B1B1B75
:1002600001D1921EF1D1184610BD10B5431C02E019
:1002700010F8011B71B18107FAD14FF0013202C8A9
:100280008C1A8C4314EAC211F9D0C01A0A0603D0A2
:10029000C01E10BDC01A10BD0A0401D0801E10BDC2
:1002A0000902FCD0401E10BD032A40F2308010F03D
:1002B000030C00F0158011F8013BBCF1020F624401
:1002C00098BF11F801CB00F8013B38BF11F8013B92
:1002D000A2F1040298BF00F801CB38BF00F8013B3F
:1002E00011F0030300F02580083AC0F0088051F8AF
:1002F000043B083A51F804CBA0E80810F5E7121DBA
:100300005CBF51F8043B40F8043BAFF30080D207D8
:1003100024BF11F8013B11F801CB48BF11F8012BA4
:1003200024BF00F8013B00F801CB48BF00F8012BC7
:10033000704710B5203AC0F00B80B1E81850203A51
:10034000A0E81850B1E81850A0E81850BFF4F5AF75
:100350005FEA027C24BFB1E81850A0E8185044BFFF
:1003600018C918C0BDE810405FEA827C24BF51F86C
:10037000043B40F8043B08BF7047D20728BF31F860
:10038000023B48BF11F8012B28BF20F8023B48BFB1
:1003900000F8012B70474FF000020429C0F01280D2
:1003A00010F0030C00F01B80CCF1040CBCF1020F28
:1003B00018BF00F8012BA8BF20F8022BA1EB0C01FD
:1003C00000F00DB85FEAC17C24BF00F8012B00F8F3
:1003D000012B48BF00F8012B70474FF0000200B519
:1003E000134694469646203922BFA0E80C50A0E858
:1003F0000C50B1F12001BFF4F7AF090728BFA0E806
:100400000C5048BF0CC05DF804EB890028BF40F8D1
:10041000042B08BF704748BF20F8022B11F0804F13
:1004200018BF00F8012B704710B5044610F0030FF9
:1004300008BF11F0030F40F015804FF0013E121F6E
:10044000C0F20E8051F8043BA3EB0E0C2CEA030C17
:100450001CEACE1C08BF40F8043BF0D0A1F1040117
:1004600002F10402521E08DB11F8013B002B00F8D8
:10047000013BF7D11146FFF78EFF204610BD7047B4
:10048000704770477047754600F02CF8AE4605007F
:100490006946534620F00700854618B020B5FFF79F
:1004A000A5FEBDE820404FF000064FF000074FF0DA
:1004B00000084FF0000B21F00701AC46ACE8C00982
:1004C000ACE8C009ACE8C009ACE8C0098D4670478B
:1004D00010B50446AFF300802046BDE81040FFF79A
:1004E00070BE000000487047D01700202DE9F04191
:1004F000044622480D4686B0016841F002010160C1
:100500000068642D00F00200059000D363254FF4CD
:1005100080760120CDE90060002002900320184F72
:1005200003906946384600F00FFBB846C5F16407F2
:100530000FE001223146404600F0D1FB284600F092
:100540002DF800223146404600F0C9FBB8B200F059
:1005500025F8641EE4B2ECD21120CDE9006002203F
:10056000029069464446404600F0EEFA00223146C9
:10057000204600F0B4FB06B0BDE8F0811C38024014
:1005800000040240FEE7704710B50446042001F065
:100590001AFC0148046010BD1C00002070B505461F
:1005A00000244FF47A7603E0304600F005F8641C2E
:1005B000AC42F9D370BD000070B54FF0E0240022CA
:1005C00065690949A36909684843A1699942FCD052
:1005D00002D2A3EB010302E0A5EB010633441A4467
:1005E0000B468242F1D370BD1C000020054B18441D
:1005F00004E000BF10F8013B01F8013B521E92B22B
:10060000F8D2704700000808074810B5016849058E
:1006100008D50415046002F0DDFB2046BDE810405B
:1006200000F090BA10BD00001404014007490022F8
:100630004A6107490B6843F400730B600B6843F091
:1006400008030B6020F0FF000260704718020020D2
:10065000043C02400A4610B50146002000F064F94F
:100660000149087010BD000004000020134A002159
:100670001068C305124804D5416941F00201416187
:10068000911513689B0505D5436943F00103436148
:1006900041F4007113681B0505D5436943F0040359
:1006A000436141F4006113689B0405D5436943F03D
:1006B0001003436141F4005111607047183C02403F
:1006C0001802002070B5054600F00EFB0646134CDC
:1006D00009E0681C07D025B100F006FB801BA8428A
:1006E00001D9032070BD2068C007F2D120688007BF
:1006F00001D5022020602068C00508D420680005CC
:1007000005D42068800402D42068800503D5FFF753
:10071000ADFF012070BD002070BD0000183C0240FC
:1007200070B515460C46064604E0304600F014F855
:1007300004F8010B6D1EF8D270BD000070B51546AF
:100740000C46064605E000BF14F8011B304600F0D9
:1007500020F86D1EF8D270BD10B5D0E90341A1425A
:1007600002D14FF0FF3010BD036882689B5C521CC1
:100770008260A24201D100228260491C01611846B8
:1007800010BD02600022C0E904124260C0E90221EB
:10079000704702697AB1D0E90023D1544168491CFD
:1007A0004160C268914201D1002141600169491E46
:1007B000016100207047416941F0010141614FF042
:1007C000FF30704708B500218DF800100146012266
:1007D000684600F041F89DF8000008BD08B50146E4
:1007E0000222684600F038F89DF800009DF80110DC
:1007F00040EA012008BD08B501460422684600F021
:100800002BF89DF800009DF8011040EA01209DF8AA
:10081000021040EA01409DF8031040EA016008BD63
:100820000C480B49022201604FF4827141600021A3
:100830008160C0E9031201224261520282611822E2
:10084000C0E90721416281620A21C16201F07AB8E0
:10085000003001403C0200202DE9F041DFF85080DB
:1008600014460D4606464FF480570022394640464E
:1008700000F035FA032000F035F8C5F3074000F02A
:1008800031F8C5F3072000F02DF8E8B200F02AF89F
:1008900004E0FF2000F026F806F8010B641EA4B265
:1008A000F7D239464046BDE8F041012200F017BAC0
:1008B0000004024070B50A4D4FF4805400222146D6
:1008C000284600F00CFAAB2000F00CF8012221467B
:1008D000284600F004FABDE870400520FFF76CBE22
:1008E000000402400EB500218DF808004FF4FA70A4
:1008F0008DF804100090012301AA02A9044801F018
:1009000009F910B1FF208DF804009DF804000EBD18
:100910003C0200200348016841F001010160002011
:1009200070470000043C02402DE9F0470646344879
:100930000C461546017C01290BD00121814601742A
:100940004CF250373846FFF7BDFE4FF0000A18B1A1
:1009500012E00220BDE8F087C9F814A0022E0ED0E4
:10096000012E13D0D6B1DFF89C80042E21D0082EA2
:100970002CD0102E37D0012089F810A0EAE7384695
:10098000FFF7A0FE0028F7D125600EE0ADB2384693
:10099000FFF798FE0028EFD1258006E0EDB238463B
:1009A000FFF790FE0028E7D125703846FFF78AFE52
:1009B000E2E7EDB23846FFF785FE0028DCD1D8F833
:1009C000001021F48071C8F80010EDE7ADB2384690
:1009D000FFF778FE0028CFD1D8F8001021F48071FD
:1009E000C8F80010D8E73846FFF76CFE0028C3D1DE
:1009F000D8F8001021F48071C8F80010C4E7000096
:100A000018020020043C024006480068C00707D0D6
:100A1000044805490830016004490160002070471E
:100A200001207047043C0240EFCDAB89050403026E
:100A30002DE9F0471C4E05460F46307C012808D0B2
:100A4000012030744CF250384046FFF73BFE18B19D
:100A500027E00220BDE8F0874FF0FF313960C14642
:100A6000DFF848806C6816E02046FFF7DFFD484657
:100A7000FFF728FED8F8002022F00802C8F800206E
:100A8000D8F8002022F40072C8F8002008B13C60B9
:100A900007E004F58074D5E9011201EB0221A142BF
:100AA000E2D800213174D5E718020020043C02404E
:100AB0000348016841F00201016000207047000016
:100AC000043C02402DE9F0410C4C16460F46207CB8
:100AD000012809D0012020744CF250384046FFF71D
:100AE000F1FD002518B107E00220BDE8F081656145
:100AF0003E604046FFF7E6FD2574F6E71802002049
:100B00000B480168890710D50068C00705D0084860
:100B100008490830016008490160054807490C3060
:100B20000160074901600020704701207047000004
:100B3000043C0240EFCDAB8905040302BFAE9D8C9F
:100B400016151413704700002DE9F84FDFF864B153
:100B500000234FF0010C4FF0030A4FF00F090BF187
:100B6000040EA0E00CFA03F6324072D04C68022C5E
:100B700001D0122C0ED1DC0800EB8408D8F82040FC
:100B80005D07EF0E09FA07F5AC430D69BD4025433B
:100B9000C8F8205007685D0091F804800AFA05F44F
:100BA00008F00308A74308FA05F848EA0708C0F860
:100BB00000804F68012F05D0022F03D0112F01D0E4
:100BC000122F11D18768D1F80C80A74308FA05F8D5
:100BD00048EA0708C0F808804768B7430E79C6F3AB
:100BE00000169E403E434660C668A6438C68AC40F3
:100BF0003443C4604C68E40054D52F4C256845F05C
:100C000001052560246823F0030504F00104009425
:100C10002A4C2544AF689C07240F09FA04F6B74311
:100C2000274EB04201D1002615E0264EB04201D138
:100C3000012610E0244EB04201D102260BE0234EE3
:100C4000B04201D1032606E0214EB04202D1042673
:100C500001E027E00526A6403E43AE60DBF80040F9
:100C60005D464E689443F60300D514432C60DEF8CD
:100C7000004075464E689443B60300D514432C607B
:100C80000C4D08352C684E689443F60200D5144389
:100C90002C60084D0C352C684E689443B60200D584
:100CA00014432C605B1C0A6832FA03F47FF45AAFD9
:100CB000BDE8F88F000401402038024000000140E8
:100CC000000002400004024000080240000C024004
:100CD000001002400069084000D0012070470AB1AE
:100CE000816170470904FBE7014800687047000014
:100CF0000000002070B5040011D021684CF6CC40F3
:100D00000860216845F255500860D4E9000141604F
:100D10002168A0688860FFF7E7FF054609E0012029
:100D200070BD00BFFFF7E0FF401B302801D9032052
:100D300070BD2068C0680028F4D121684AF6AA2056
:100D40000860002070BD00684AF6AA2101600020FA
:100D50007047000002480168491C016070470000AC
:100D600000000020094810B5016841F0040101604D
:100D7000016841F002010160052000F0AFF80F208A
:100D800000F006F800F018F8002010BD003C02400A
:100D900010B5044607484FF47A710068B0FBF1F0D3
:100DA00001F01DF800222146501E00F077F80020C7
:100DB00010BD00006800002070B5284C86B0206887
:100DC00040F001002060206800F0010005902068DC
:100DD00040F002002060206800F0020005902068CA
:100DE00040F004002060206800F0040005902068B6
:100DF00040F0200020602068032500F020000590CE
:100E000049F6FF70CDE90005002002900390694685
:100E10001348FFF799FE4FF6FF7669461148009692
:100E2000FFF792FE694610480096FFF78DFE69466F
:100E30000E480095FFF788FE206820F00100206032
:100E4000206820F002002060206820F0040020606C
:100E5000206820F02000206006B070BD1C380240E1
:100E6000000002400004024000080240001402405A
:100E700000F01F02012191404009800000F1E020B4
:100E8000C0F88011704700F01F0201219140400915
:100E9000800000F1E020C0F800117047F0B40E4B64
:100EA0001B680C46C3F30223C3F10705042D00D9C8
:100EB0000425191D072901D2002300E0DB1E0126AD
:100EC00006FA05F1491E214099409E40761E1640C3
:100ED0003143F0BC00F0BEBF0CED00E0064900F06D
:100EE000070208684FF6FF03184040EA0220034A51
:100EF00010430860704700000CED00E00000FA05A8
:100F0000BFF34F8F05480168054A01F4E0611143C2
:100F10000160BFF34F8F00BFFDE700000CED00E064
:100F20000400FA052DE9F047DFF8BC8105460E46BE
:100F3000D8F8000000F00100B04214D2012E05D113
:100F4000D8F8001041F00401C8F80010D8F80010DB
:100F500021F001013143C8F80010D8F8000000F07A
:100F60000100B04271D12878604C800705D5206817
:100F7000A96820F0F000084320602878C00771D0ED
:100F80005A4A5A4B69680120083A2C33022910D07A
:100F900003292ED001292FD05FEA402797FAA7FC1A
:100FA000BCFA8CFC4CF0200C5FEA5C1C04D012688C
:100FB00003E04FF40037F1E71A6897FAA7F3B3FAA2
:100FC00083F303F01F039840024262D0206820F0B0
:100FD000030008432060FFF787FE6968074641F277
:100FE0008830022910D003291CD00129814626D03F
:100FF00034E04FF00077D1E70227CFE7FFF774FE28
:10100000C11B494501D926E081462068C0F3810013
:101010000228F3D126E000BFFFF766FEC11B494559
:1010200001D918E081462068C0F381000328F3D17C
:1010300018E000BFFFF758FEC11B49450BD82068D8
:10104000C0F381000128F5D10CE022E0FFF74CFE4F
:10105000C11B494502D90320BDE8F087206810F084
:101060000C0FF3D1D8F80010404601F00101B14255
:1010700011D9012E03D1016841F00401016001681A
:1010800021F0010131430160006800F00100B0422D
:1010900001D00120E0E72878400705D52068E968FD
:1010A00020F4E060084320602878000706D5206817
:1010B000296920F4605040EAC100206000F054F833
:1010C0002168F02292FAA2F201F0F001B2FA82F263
:1010D000D140074A515CC840064908600F20FFF71D
:1010E00057FE0020B8E70000003C024008380240EC
:1010F0006F36000868000020164810B5016841F4FA
:1011000080710160134908310A6822F003020A6005
:101110000268114B1A40026000220A60001D01683B
:101120000E4B194041F42041016001684FF4F8541E
:1011300094FAA4F41023B4FA84F421F4F851A340EF
:101140001943016003480C300260064904480860F6
:1011500010BD000000380240FEFFFAEEFF1FFF0046
:1011600068FF1F00680000201E4A116801F00C0093
:10117000042813D0082813D00C2813D0101F00689F
:1011800000F460414FF4604090FAA0F0B0FA80F0B3
:10119000C1404FF40040491C8840704712487047D6
:1011A000124870474FF4701393FAA3F301F47010D0
:1011B000B3FA83F3D8400E4B01F440011268185C77
:1011C0004FF4400393FAA3F3B3FA83F3D940491CD5
:1011D000D20301D5054A00E0034A5043B0FBF1F0C9
:1011E00070470000083802400024F40000127A0022
:1011F000663600082DE9F84F07460078FB4EFC4D97
:10120000C0074FF0010428D0F848083001684FF4B7
:101210000038C1F38101022907D00168C1F38101BF
:1012200003291BD10068C00318D598FAA8F0B0FABA
:1012300080F040F02000400901D0306800E02868CC
:1012400098FAA8F1B1FA81F101F01F0104FA01F155
:1012500008425CD0786800287BD058E07868012884
:101260000AD008B1052811D0306820F480303060F1
:10127000306820F4802002E0306840F48030306034
:10128000786828B3FFF730FD81460BE0306840F402
:1012900080203060F0E700BFFFF726FDA0EB0900DB
:1012A000642872D898FAA8F0B0FA80F040F02000D4
:1012B000400901D0306800E0286898FAA8F1B1FA36
:1012C00081F101F01F0104FA01F10842E4D01EE0AF
:1012D000FFF70AFD814605E0FFF706FDA0EB0900D8
:1012E0006428DED898FAA8F0B0FA80F040F0200028
:1012F000400901D0306800E0286898FAA8F1B1FAF6
:1013000081F101F01F0104FA01F10842E4D13878BB
:10131000DFF8E08280074FF0000B4FF002095FD545
:10132000B24808300168C1F38101012907D0016882
:10133000C1F3810103291CD10068C00319D499FAB3
:10134000A9F0B0FA80F040F02000400902D03068E7
:1013500001E086E0286899FAA9F1B1FA81F101F07B
:101360001F0104FA01F108422BD0F868012878D156
:1013700027E0F868A8B394FAA4F0B0FA80F048F82F
:101380002040FFF7B1FC824606E066E1FFF7ACFCC7
:10139000A0EB0A00022884D899FAA9F1B1FA81F1E8
:1013A00041F02001490901D0316800E0296899FA2B
:1013B000A9F0B0FA80F000F01F0004FA00F001423A
:1013C000E4D08A48001D01684FF4F85393FAA3F360
:1013D0003A69B3FA83F321F4F8519A40114301605A
:1013E00025E0FFE794FAA4F1B1FA81F148F821B0C1
:1013F000FFF77AFC824605E0FFF776FCA0EB0A00D7
:101400000228C8D899FAA9F0B0FA80F040F020007C
:10141000400901D0306800E0286899FAA9F1B1FAD2
:1014200081F101F01F0104FA01F10842E4D138789A
:101430004FF4007AC0067CD56C480830006810F084
:101440000C0F0FD0B9694FF48070002972D090FA58
:10145000A0F0B0FA80F048F82040FFF745FC00907B
:101460007EE087E09AFAAAF0B0FA80F040F020001F
:10147000400901D0306800E028689AFAAAF1B1FA70
:1014800081F101F01F0104FA01F1084202D0B869AC
:1014900000286FD05548396A001D006800F460408C
:1014A00081421AD9084600F049FD002862D14F4810
:1014B000001D01683A6A21F460411143016001682E
:1014C0004FF07F4393FAA3F3FA69B3FA83F321F061
:1014D0007F419A401143016018E04448001D0268B2
:1014E00022F460420A43026001684FF07F4393FA9E
:1014F000A3F3FA69B3FA83F321F07F419A401143D1
:101500000160386A00F01AFD0028CFD14FF4604125
:1015100091FAA1F1386AB1FA81F1C8404FF4004163
:10152000401C8140314808300068F02200F0F00093
:1015300001E070E040E092FAA2F2B2FA82F2D0400A
:101540002D4A105CC1402D4801600F20FFF720FCA0
:1015500061E000BFFFF7C8FB0099401A02287CD861
:101560009AFAAAF0B0FA80F040F02000400902D0C8
:10157000306801E0BCE128689AFAAAF1B1FA81F179
:1015800001F01F0104FA01F10842E3D01748001DE1
:1015900001683A6A21F460411143016001684FF02B
:1015A0007F4393FAA3F3FA69B3FA83F321F07F41FF
:1015B0009A40114301602EE090FAA0F0B0FA80F05A
:1015C00048F820B0FFF790FB009005E0FFF78CFB98
:1015D0000099401A0228C2D89AFAAAF0B0FA80F00C
:1015E00040F0200040090BD030680AE0003802408B
:1015F00034380240000047426F360008680000207F
:1016000028689AFAAAF1B1FA81F101F01F0104FAEF
:1016100001F10842DAD13878000753D5786948B328
:1016200094FAA4F0B0FA80F008EB8000C0F880468D
:10163000FFF75AFB009005E0FFF756FB0099401AB0
:1016400002288CD899FAA9F0B0FA80F040F0400056
:10165000B4EB501F02D1306801E08EE0286899FA9F
:10166000A9F1B1FA81F101F01F0104FA01F210426F
:10167000E2D027E094FAA4F1B1FA81F108EB8101FC
:10168000C1F880B6FFF730FB009005E0FFF72CFBB8
:101690000099401A022870D899FAA9F0B0FA80F09F
:1016A00040F04000B4EB501F01D1306800E02868E2
:1016B00099FAA9F1B1FA81F101F01F0104FA01F2DE
:1016C0001042E3D1387840077BD59B484FF00009A2
:1016D0000068C0000AD49848016841F08051016058
:1016E00000684FF0010900F08050009093480168B5
:1016F000C90511D4016841F480710160FFF7F4FA63
:10170000009005E0FFF7F0FA0099401A642834D8F9
:101710008A480068C005F5D5B86801280AD008B124
:10172000052811D0286820F480702860286820F4EB
:10173000806002E0286840F480702860B86848B390
:10174000FFF7D2FA00900DE0286840F4806028602E
:10175000F0E700BFFFF7C8FA0099411A41F288305C
:1017600081420AD89AFAAAF0B0FA80F040F040001C
:10177000B4EB501F02D1306801E095E028689AFA76
:10178000AAF1B1FA81F101F01F0104FA01F210424D
:10179000E0D022E0FFF7A8FA009007E0FFF7A4FAF4
:1017A0000099411A41F2883081427DD89AFAAAF014
:1017B000B0FA80F040F04000B4EB501F02D1306826
:1017C00001E012E028689AFAAAF1B1FA81F101F079
:1017D0001F0104FA01F21042E0D1B9F1000F04D068
:1017E0005548016821F080510160786AE8B3DFF85C
:1017F0004891A9F11C09D9F80010C1F3810103290E
:1018000076D002284FF080714FF0007A58460BD006
:1018100091FAA1F1B1FA81F148F82100FFF764FAD9
:10182000B046074656466DE04FF0807191FAA1F13F
:10183000B1FA81F18A0042495050FFF755FAB34698
:101840008046564606E000BFFFF74EFAA0EB0800C0
:10185000022854D896FAA6F0B0FA80F040F02000A2
:10186000400903D0DBF8000001E061E0286896FA47
:10187000A6F1B1FA81F101F01F0104FA01F1084269
:10188000E2D1D7E90A103A6BD9F80030014323F4CA
:101890007D031A431143C9F800104FF0807090FA8D
:1018A000A0F0B0FA80F000E029E0810024480C505C
:1018B000FFF71AFA074604E0FFF716FAC01B0228E2
:1018C0001DD896FAA6F0B0FA80F040F0200040094A
:1018D00002D0DBF8000000E0286896FAA6F1B1FA21
:1018E00081F101F01F0104FA01F10842E4D01FE088
:1018F00020E000BFFFF7F8F9C01B022802D903203F
:10190000BDE8F88F96FAA6F0B0FA80F040F020001B
:10191000400902D0D8F8000000E0286896FAA6F145
:10192000B1FA81F101F01F0104FA01F10842E1D19D
:101930000020E5E70120E3E7243802400070004082
:101940000000474270B5040004D094F8510000250F
:1019500010B106E0012070BD84F85050204600F020
:101960002FF8022084F851002068016821F040011E
:101970000160D4E901010843D4E90312114308438B
:1019800061690843218B01F400710843E169084350
:10199000216A0843A16A084321680860A0690421FC
:1019A00001EA1040616A0843216848602168E06AE2
:1019B00008616565012084F85100002070BD0000B9
:1019C0002DE9F04F07464F4C4D48251D0526DFF801
:1019D00038918BB04FF0200A4FF002084FF0030B04
:1019E000874236D1206840F001002060206800F076
:1019F00001000A90206840F001002060206800F09B
:101A000001000A90206840F001002060206800F08A
:101A100001000A90286840F480502860286805A9D1
:101A200000F480500A90CDE905A80996CDE9078B0E
:101A30004846FFF789F84020059005A909964846D1
:101A4000FFF782F88020059005A909964846FFF720
:101A50007BF82E48874250D1206840F00200206079
:101A6000206800F002000A90206840F00100206029
:101A7000206800F001000A90206840F0010020601A
:101A8000206800F001000A90206840F0010020600A
:101A9000206800F001000A90286840F48050286017
:101AA00028684FF4805400F480500A900127184DA4
:101AB000CDE900476946CDF80CB02846FFF744F859
:101AC000CDF800A00496CDE9018769464F46484607
:101AD000FFF73AF880200090694604963846FFF7F1
:101AE00033F840200090694604963846FFF72CF8FA
:101AF000012221462846FFF7F2F80BB0BDE8F08F2F
:101B0000B81200201C380240000002403C020020B5
:101B1000000402402DE9F8430025DDF8208004464A
:101B2000ADF8005090F85100012803D094F851000E
:101B300022287DD169B162B15BB194F850000128CF
:101B400076D0012684F8506094F85100012803D023
:101B500005E00120BDE8F883322084F85100656576
:101B6000A263A387E3872163A386E386A564E56474
:101B7000A06A4FF40057B84209D12068016821F4E7
:101B8000005101602068016841F400510160206843
:101B90000168490603D4016841F040010160E06832
:101BA0004FF48271B0F5006F606807D0002867D0ED
:101BB00088426ED1E08E012862D06AE020B188426E
:101BC0000CD1E08E012809D1206B21680088C86003
:101BD000206B801C2063E08E401EE086E08E40BBC0
:101BE000A06AB84244D12068016841F48051016084
:101BF0003EE02068C068A16B0880A06B801CA063D9
:101C00009EE0434600220221204600F0FDF9002814
:101C100074D1206B21680088C860206B801C206311
:101C2000E08E401EE086E08E50B9A06AB84201E026
:101C3000C7E017E004D12068016841F480510160D9
:101C4000434600220121204600F0DEF900286FD132
:101C50002068C068A16B0880A06B801CA063E08F27
:101C6000401EE087E08E0028CBD1606800286AD152
:101C7000434600220121204600F0C6F9F0BBB8E738
:101C8000206B411C216321680078C860E08E401EF3
:101C9000E086E08E98BBA06AB84204D12068016853
:101CA00041F480510160434600220121204600F0AA
:101CB000ABF918BB2068C068A16B087040E04346D0
:101CC00000220221204600F09FF9B8B9206B411C88
:101CD000216321680078C860E08E401EE086E08EB7
:101CE00038B9A06AB84204D12068016841F4805133
:101CF0000160002243460121204601E018E00BE08C
:101D000000F082F9A0B92068C268A06B411CA163F1
:101D10000270E08F401EE087E08E0028CFD160681F
:101D200088B9434600220121204600F06DF908B130
:101D300003200FE72068C168A06B421CA2630170FA
:101D4000E08F401EE087A06AB84210D143460022CF
:101D50000121204600F058F918B1606D40F00200F2
:101D60000FE02068C068ADF80000BDF800004346F1
:101D700001228021204600F047F920B1606D40F03B
:101D800020006065D4E784F85160A06AB84214D19D
:101D900020688168C943C9060FD4616D41F0020112
:101DA0006165016821F4005101602068016841F417
:101DB0000051016084F85050CBE684F85050002068
:101DC000C8E60220C6E64FF0E0210428086903D0E7
:101DD00020F004000861704740F00400FAE710B5F5
:101DE000401EB0F1807F01D3012010BD4FF0E024F0
:101DF00060610F21601700F02DF80020A06107201E
:101E00002061002010BDFEE70148FEF79CBF0000E6
:101E100030020020044A034B1360C2E9010110465E
:101E2000FEF768BF003000403002002008B50168AE
:101E300000BF064A1140B1F1005F05D14168009131
:101E4000006880F308888847012008BD0000F02F53
:101E5000FEE770470907090E002806DA00F00F00B8
:101E600000F1E02080F8141D704700F1E02080F8B8
:101E7000001470477047000070B52D4C8CB020687E
:101E800040F0010020602068A51500F001000A90D4
:101E90000120CDE90550002007900320254E089031
:101EA00005A93046FEF750FE012229463046FEF7CE
:101EB00016FF206840F002002060206800F0020059
:101EC0000A90206840F00200206020681A4C00F060
:101ED00002000A904020009011200190694620469F
:101EE000FEF732FE8020009069462046FEF72CFE69
:101EF000002240212046FEF7F2FE002280212046EB
:101F0000FEF7EDFE40F6B830FEF748FB002229460A
:101F10003046FEF7E4FE012240212046FEF7DFFEB8
:101F2000012280212046FEF7DAFE0CB070BD0000D1
:101F30001C380240000002400004024038B51C4931
:101F4000002309681B4A11F0F00F23D118491C31F6
:101F50000C68E500184C03D5216801F4C0540EE06C
:101F60000D6845F080550D600D6805F080550095B1
:101F700024680D6804F4C05425F080550D60B4F554
:101F8000C05F07D1B0F5404F04D11068012340F085
:101F900004001060106820F0010018431060106801
:101FA00000F00100984201D0012038BD002038BD6A
:101FB00008380240003C0240007000407047704703
:101FC0000F4810B5016886B041F002010160006859
:101FD0000C4C00F0020005900820009001200190B8
:101FE000002002900320039069462046FEF7ACFDD6
:101FF000002208212046FEF772FE06B010BD000048
:102000001C380240000402402DE9F0471D4690466E
:102010000E460446FEF768FE07465FEA08004FF0EA
:1020200000084FF4005A4FF0010926D034E0681C34
:1020300023D025B1FEF758FEC01BA8421DD9206849
:10204000416821F0E00141602068016821F0400111
:102050000160A06A504509D12068016821F400514F
:1020600001602068016841F40051016084F85190DA
:1020700084F850800320BDE8F0872068806836EA45
:102080000000D4D10DE0681C06D0002DD7D0FEF79B
:102090002BFEC01BA842D2D82068806836EA000018
:1020A000F1D00020E7E7704770B594B00D460646C2
:1020B000FFF722F8012103910220102109AA0090C4
:1020C00000240C95049182E851006846FFF792F8CD
:1020D00000B1FEE71148016841F0805101600068DD
:1020E00000F0805012900E48016821F4C05141F474
:1020F000006101604168C943C906FBD50F200D90FE
:102100000320CDE90E04109401210DA81194FEF7CF
:1021100009FF002800D0FEE714B070BD243802404B
:102120000070004010B5FEF715FE00F021F8BDE884
:10213000104000F007B800000148806870470000B8
:102140000C00002010B5FEF7CFFD08494A68904208
:1021500002D9831A642B03D8D3431844642804D3C8
:10216000C868401C64324A60C86010BD0C00002082
:1021700010B5FEF7B9FD0A494FF47A730A68904228
:1021800002D9841A9C4203D8D4432044984205D3F0
:10219000886802F57A72401C0A60886010BD0000F1
:1021A0000C0000200F48016841F4807101600D4966
:1021B00008310A680C4B1A400A6002680B4B1A403F
:1021C0000260026822F480220260086820F47D0028
:1021D00008600020091D086005494FF00060086094
:1021E00070470000003802400CC0FF88FEFFFEEE82
:1021F00008ED00E00278002162F30701427862F303
:102200000F218278C07862F3174160F31F6108469E
:1022100070472DE9F04115460E460746002405E0BB
:10222000315D3819FEF716FA641CE4B2AC42F7D3FC
:10223000BDE8F081FEF70EBA704770477047FEE7C1
:1022400070470000002210B51146104600F0C0FC97
:10225000114CA079000708D5012000F061FC022094
:1022600000F0A2FC082000F05BFCA078810601D5FC
:10227000202010BDC10601D5102010BD000702D5D9
:10228000022000F091FCA078810701D5022010BD4A
:10229000C007FCD0012010BDAC17002001B582B0F2
:1022A00000208DF8040064200090012301AA02A9F7
:1022B0000248FFF72FFC9DF804000EBDB812002065
:1022C00010B50446FEF7F4FB2046BDE81040FFF7CA
:1022D000ADBD000088B02022F9496846FEF729F814
:1022E000FEF740FD4FF400010811FFF7DDFE4FF44B
:1022F0007A610620FFF78EFDFFF786FDFFF760FE8F
:102300002020FEF741F9FFF7B7FD00F09BFEFEF736
:10231000D1FAFEF785FAEC4CEA486062192000F029
:1023200045FD00F003FDE94D4FF0020B4FF00308AF
:1023300001285ED0032859D004285AD085F800B06F
:1023400000F0EEFC074628210120FEF7CFF86420BC
:10235000FEF724F914210220FEF7C8F86420FEF7E6
:102360001DF928210120FEF7C1F86420FEF716F9B7
:1023700014210220FEF7BAF86420FEF70FF928783E
:102380000A2630308DF80F0097FBF6F030308DF8CC
:10239000180097FBF6F006FB107030308DF819002E
:1023A00032208DF8060035208DF80700684600F0D1
:1023B00089FF00BF072F06DDF8071CD085F800B0A5
:1023C000642F00DD07277F1CF8B200F0BDFC2878E1
:1023D000DFF8FCA24FF46179022806D0042870D0FF
:1023E00000F02AFE50B185F800B065E185F8008064
:1023F000A6E72870A4E785F80080E1E701208AF8C5
:10240000000000F018FFB349DFF8CCB2086034E0F8
:10241000C82040F2E6310F467F1EFDD1401EFAD1A2
:10242000FFF7F2FC00F0AEFFFEF75EFCB0FBF8F247
:1024300008FB120064214843FEF7B0F801F0ECF805
:102440000120FEF7ABF800F077FF7F1C4F45F7DB6C
:10245000FFF772FE782805D38AF80080FEF728FB84
:10246000FEF74EFDFFF768FEB0FBF6F106FB11002C
:1024700018B914210120FEF739F89BF80000002854
:10248000C6D128784FF4FA7B012804D0032874D0F1
:102490000428A4D010E1574600F04EFF3878E0B38E
:1024A000022804D0012825D004284ED056E000F0A0
:1024B00043FFFFF741FE484504D300BF87F8008083
:1024C00048E0DBE0FFF738FE054600F02FFF1E3046
:1024D000854204D900F02AFF08B100BFEEE7FFF7FC
:1024E0002BFE054600F022FF0A30854236D900F067
:1024F00049FF33E000F046FF5D460120FEF74EF84D
:1025000000F01AFF6D1EF8D1FEF7EEFBB0FBF8F2FB
:1025100008FB12006421484300E00FE0FEF73EF89C
:1025200001F07AF85D460120FEF738F800F004FF6C
:102530006D1EF8D1FFF700FE78280FD3022000F0BF
:1025400017FC606A00F0AAFF08E000BF42F21070BA
:10255000FEF724F8FEF7ACFAFEF7D2FCFFF754FCC6
:10256000FFF7EAFDB0FBF6F106FB1100002893D15E
:1025700014210120FDF7BAFF8EE72BE000F002FFE7
:10258000DA465F460120FEF709F800F0D5FE7F1E0F
:10259000F8D1FEF7A9FBB0FBF8F208FB12006421AA
:1025A0004843FDF7FBFF01F037F857460120FDF7E0
:1025B000F5FF00F0C1FE7F1EF8D1FFF7BDFD4845D5
:1025C00005D385F80080FEF773FAFEF799FCFFF754
:1025D0001BFC46E0554628780128CFD0022803D0BE
:1025E00018B3042828D030E000F0A6FEFFF7A4FDC1
:1025F000484502D385F8008023E0FFF79DFD07469C
:1026000000F094FE1E30874204D900F08FFE08B11E
:1026100000BFEFE7FFF790FD074600F087FE0A30A6
:10262000874212D900F0AEFE0FE0022000F0A0FBBE
:10263000606A00F033FF08E000BF42F21070FDF75F
:10264000ADFFFEF735FAFEF75BFCFFF7DDFBFFF7AA
:1026500073FD484505D385F80080FEF729FAFEF79B
:102660004FFCFFF769FDB0FBF6F106FB11000028F7
:10267000B1D114210120FDF739FFACE7FEF7D0F806
:10268000FEF718F90020FEF79DF8552814D1012017
:10269000FEF7B1F8A0610520FEF7A0F82080072022
:1026A000FEF79CF860800920FEF798F8A080228849
:1026B000616AA06900F08EF8606A00F0EFFEE0E663
:1026C000483600080038000820000020F4010020EF
:1026D000EA01002004020020E80100202DE9F04773
:1026E0008A46817800270909C67886B0012902D078
:1026F000042955D055E0DFF8CC90DFF8CC80334C7E
:1027000000F10805012E17D12078A8B9032000F0A8
:102710002FFBD8F8001021F47F426979891E61618E
:1027200042EA0121C8F80010494505D34346042276
:102730000021274800F020FFD8F800C0CC4503D284
:10274000012006B0BDE8F0876068C11700EB116199
:1027500021F0FF01411AB14223D0C1012B46802252
:10276000604600F009FF30B12069401C012720615C
:10277000FF2E07D009E06068401C6060A0688030D0
:10278000A060F5E72078401C20706068C11700EB5E
:10279000116121F0FF01401AB04202D0012700E090
:1027A0000227002002A9CDE900105346324603213A
:1027B00000F0AAFE9DF8081002A800F037FD384688
:1027C000BFE700000038000844000020F8010020A6
:1027D000003700082DE9F041384C804600201746AC
:1027E000A060E06022616061354A4FF40061A2F1AF
:1027F0001800FDF7C6FF324D324E183D31E017D0BC
:10280000A1882869884213DBFEF70AF8A16862886C
:1028100001FB0281A2882C48FEF71EF8A068401C2C
:10282000A060A28828497F1EA1F61800FDF786FF48
:10283000D5E90301401A802811DB24498022A1F642
:102840001840FDF76DFFE068204BC1018022304643
:1028500000F092FEE068401CE06000F039F8FFF7FD
:10286000D3FA002FCBD1D5E90301A0EB01008028DA
:10287000DEDAD5E90310081A606100281BDD626901
:102880001249A1F61840FDF74BFF60690F49FF227E
:1028900001E00A54401C8028FBDBE0680B4BC101BF
:1028A0008022304600F068FEE068401CE060BDE831
:1028B000F04100F00DB8BDE8F081000020000020DC
:1028C000AC02002000380008AC0A0020AC0E00204A
:1028D0001B4830B4C1684FF44852514302698388A1
:1028E0005A43B1FBF2F16422B1FBF2F200F128018C
:1028F00030320A75C2684FF448535A4303698488DA
:102900006343B2FBF3F30A22B3FBF2F3B3FBF2F43B
:1029100002FB143330334B75C3684FF448546343A0
:10292000046980884443B3FBF4F0B0FBF2F302FB8C
:1029300013003030887530BC084600F0C3BC00007E
:10294000200000200149002008707047100200207C
:102950002DE9F0410F46064642F2107500F0A2F84C
:10296000442000F0CFF800F0BDF80446FF280AD05C
:1029700000F0B0F862206D1E401EFDD1002DEDD19B
:10298000FF2C07D009E01EB13946304600F0ADF803
:1029900000F0A0F80249012008702046BDE8F0814F
:1029A0001002002000210846FFF7D2BF2DE9F041B8
:1029B0000F4D1E46174680460A2439B909E000BF6C
:1029C000FFF7F0FF641E14F0FF0402D028780028FF
:1029D000F6D000F067F8404600F094F831463846EB
:1029E00000F083F800F076F800202870BDE8F08150
:1029F000100200202DE9F0410E4607460A240C4D36
:102A000006E000BFFFF7CEFF641E14F0FF0402D003
:102A100028780028F6D000F045F83146384600F016
:102A200073F800F057F800202870BDE8F08100002E
:102A30001002002070B51C461546FFF7DBFF21464B
:102A40002846BDE87040FFF783BF00002DE9F04144
:102A50000F4D1E46174680460A2439B909E000BFCB
:102A6000FFF7A0FF641E14F0FF0402D028780028AE
:102A7000F6D000F017F8404600F044F831463846EA
:102A800000F042F800F026F800202870BDE8F08140
:102A900010020020012210210148FEF720B9000099
:102AA0000004024000224FF400410148FEF717B92C
:102AB00000000240002210210148FEF710B900007A
:102AC000000402404FF480610148FEF703B90000A2
:102AD000000402400122D1030148FEF700B90000C2
:102AE00000000240FF20FFF7D9BB70B50C46054639
:102AF00004E0FF20FFF7D2FB04F8010B6D1EEDB2DE
:102B0000F7D270BDFFF7CABB70B50C46054603E0AF
:102B100014F8010BFFF7C2FB6D1EEDB2F8D270BDC9
:102B2000034934220A7048700220FFF763BF000097
:102B3000C017002070B51A4D0446002028602AE016
:102B4000641C102825D80021164B04E014F8012B32
:102B50005A54491CC9B28142F8D32968491C2960DA
:102B6000392900D100BF00231A460E49FFF762FF42
:102B7000FF2801D0022070BDFFF7A4FF58B9002242
:102B80001146104600F024F80648143880790007F2
:102B900001D5042070BD20780028D1D170BD00007F
:102BA00014020020C017002010B5084C1521234640
:102BB00021706070022219461046FFF73BFFA4F116
:102BC0001400217801706178417010BDC017002099
:102BD00010B50F4C202323706070A170E270234663
:102BE000082219460420FFF725FFA4F114002178DC
:102BF000017061784170A1788170E178C1702179AC
:102C0000017161794171A1798171E179C17110BD61
:102C1000C017002010B50E4C01202346207008225A
:102C20001946FFF707FFA4F11400217801706178BD
:102C3000A27842EA01214160E1780172217962794A
:102C400042EA0121C160A1790174E179417410BDAA
:102C5000C01700200B46024600217720FFF7A6BED2
:102C600010B5FFF717FF40F2E730401EFDD1FFF728
:102C700021FF40F2E630401EFDD1BDE81040FFF7D5
:102C800061BE00000FB40D4A10B5112313705070CF
:102C900091709DF81000D07005AB042005E000BFD6
:102CA00013F8044B1454401CC0B2491EC9B2F7D2E9
:102CB0000249FFF79FFE10BC5DF814FBC01700200F
:102CC000F0B4094CDDE90456322727706070A1701A
:102CD000100AE07022716371A571E6712146F0BCA3
:102CE0000820FFF787BE0000C017002030B4084B53
:102CF00031241C7058709970100AD8701A71002015
:102D00005871987130BC19460720FFF773BE000058
:102D1000C01700200B46024600216620FFF796BE32
:102D200001480078704700007B04080801480078DB
:102D3000704700000C04080800B50248FFF75AFA73
:102D4000C0B200BDB904080810B50446FDF75CFE2A
:102D500005494FF40060086021460448FFF76AFA0D
:102D6000BDE81040FDF7D6BD183C02407B040808C2
:102D700010B50446FDF748FE08494FF400600860AE
:102D8000042207A10848FFF744FA07482146001D1E
:102D9000FFF750FABDE81040FDF7BCBD183C0240FB
:102DA00054434C44000000000804080810B50446D1
:102DB000FDF72AFE05494FF40060086021460448EB
:102DC000FFF738FABDE81040FDF7A4BD183C0240FB
:102DD000280408082DE9F843394DFFF733FA202875
:102DE0000CD002280ED00026364C4FF001081028D7
:102DF0000CD0012834D1E079A0B347E0BDE8F84316
:102E000000F0FEB8BDE8F84300F0E4B8A179207AFC
:102E1000091A491CCFB2E17929B329183846FFF7BE
:102E200019FF207A38442072A6702672E671FF20BE
:102E300000900023112202211220FFF723FF00211E
:102E4000607800F0E9FA284600F044FB10B11C4815
:102E500000F0F0F8FF212846FDF79DFA84F8028083
:102E6000BDE8F8830BE017490120891DFFF7F2FE4A
:102E7000691CA079FFF7EEFEA0792870D4E72946F7
:102E80000120FFF7E7FE2878A0712672A179207A49
:102E9000091A491CC9B23029E2D3E17969B129186C
:102EA0005FF03000FFF7D6FE207A30302072E079F4
:102EB0000028D5D184F80780D2E7691C2F20F1E7DC
:102EC000101300206C00002070B5114C0122491C29
:102ED000E0602270C9B20D4D2171002262716279E9
:102EE00091420AD96279891ACAB26179014460783B
:102EF00000F0A8FA617908446071A078002804D035
:102F00002078012801D16D1EFBD270BD80380100F0
:102F10006C0000200D49002000EB400202EB801203
:102F200011F82220012A05D0401C40B20228F3DB10
:102F30000020704700EB400303EB8010002201F8F3
:102F4000202001EB8000083070470000941500201D
:102F50002DE9F041002501461D4E681E2C4600BF9C
:102F600004EB440202EB841216F8223003B9204627
:102F700005EB450303EB851306EB820206EB8303A7
:102F800052685B689A4200D22546641C64B2022CE7
:102F9000E6DB002800DA284600EB400202EB801452
:102FA00006EB840707F1080040F20112FDF77CF9F7
:102FB000012006F8240005EB450000EB851006EB28
:102FC0008001486878604868401C4860BDE8F0812E
:102FD0009415002010B5094C2079617988420BD9ED
:102FE0006179401AC2B26179E0680144607800F00A
:102FF00029FA61790844607110BD00006C0000205E
:1030000038B50B4C2078002810D00020607120705B
:10301000FF2000900023112202211220FFF732FE30
:103020006078BDE83840002100F0F6B938BD0000F6
:103030006C000020FFF78CBF0148C078704700008B
:103040006C00002070B5FFF777FE24251E4C242865
:103050000FD0FFF771FE04281BD0FFF76DFE062886
:1030600017D0FFF769FE102813D0FFF765FE1A2866
:103070000FD0657000F02CF800F0C4F9FFF7CAFD1E
:1030800012484068A0F58841383904D00120E0702A
:1030900070BD6070EEE70020E07001E000F0B2F972
:1030A00009481030FFF746FD0028F7D100221146ED
:1030B0001046FFF78DFD0021607800F0ADF9282063
:1030C000FDF7E1FE002070BD6C000020AC17002071
:1030D00030B52D4887B02B4901601821C16100210E
:1030E0008160416107220161C0E90A12C1604FF4A9
:1030F00000720162826141624FF482714160FEF7A9
:1031000021FC2248016841F002010160016801F0E0
:1031100002010591016841F002010160016801F0BE
:1031200002010591016841F001010160006801247C
:1031300000F0010005904FF40040CDE900040325A4
:10314000694603951248FDF7FFFC10200395CDE971
:103150000004104D69462846FDF7F6FC0E48CDE9FF
:103160000104A002009069462846FDF7EDFC00220C
:1031700002212820FDF792FE2820FDF779FE07B0F6
:1031800030BD000000300140B81200201C38024061
:103190000000024000040240000021102DE9F0412F
:1031A00005464078002600F00701042903D00226D6
:1031B0003046BDE8F0814009FAD104221049281DAB
:1031C000FDF727F80028F3D1A87802270D4CB7EBBC
:1031D000101F02D1287A2070EAE7A0780328E7D0F0
:1031E00007492846FFF77AFAE070022803D020B199
:1031F0000420A070DCE70020FBE7A770D8E7000000
:1032000004020020E801002070B50C460546FFF7D7
:1032100081FE010008D00878401CC2B22270284606
:10322000FDF742F8002070BD012070BD10B5FFF71A
:103230004BFE002010BD08B50422694640F604404C
:10324000FDF7D4F9BDF802009DF8011040BA61F312
:103250001F409DF8001040EA016008BD2DE9F041D3
:103260001F46DDE90645034605F109002070607838
:10327000002620F00700401D20F0E00040F0200074
:103280006070A07820F0F00040EA0110A07002B158
:10329000E2702DB12A46194604F10800FDF704F842
:1032A0006760012005F1080104E0225C401C324403
:1032B00096B2C0B28842F8D3310A601901724672E0
:1032C000BDE8F0817CB50646174CFCF7CEFFC5B2D1
:1032D0001E2D00D91E25FFF7FBFEFFF7ADFE0028CF
:1032E00020D1401E2060012020713A2060712A46C2
:1032F0003146A01DFDF798F8FFF79DFF034600F04B
:1033000039F80246AD1DE8B2074D0521203DCDE953
:1033100000502046FFF7A2FF29782846BDE87C40F0
:10332000FFF784BF7CBD0000341400200148806892
:1033300070470000E801002008B500208DF800006B
:10334000FFF77AFE002810D169460848FFF75CFFB6
:1033500000280AD19DF800100448FFF71FFF00283D
:1033600003D1FEF7E9FE0249886008BD94140020ED
:10337000E801002002494878421C4A70704700006A
:10338000E80100207CB51D4CFFF756FE002833D124
:10339000401E206001252571382060710020A07139
:1033A0001920E07133202072FFF746FE08B36572E2
:1033B000134DA878A072FEF7BFFE69680A318842F3
:1033C0001AD9FEF7B9FE6860FFF735FF0346FFF72D
:1033D000D1FF0A4D02460B20203DCDE900500521CA
:1033E0002046FFF73BFF29782846BDE87C40FFF7E1
:1033F0001DBF02206072DBE77CBD0000341400209A
:10340000E801002010B50024FFF72AFC4FF480509B
:10341000641C8442FCD310BD7CB500220C460546DA
:1034200011461046FFF7D4FB0220FFF7BDFB082131
:103430000320CDE900010023224619462846FFF764
:103440003FFC7CBDF8B5064614460D460320FFF749
:1034500067FB0120FFF7A8FB002211461046FFF78B
:10346000B7FB302C05D329463020FFF753FC30251D
:1034700005E0671CF8B22946FFF74CFCFDB20023BB
:103480001122022112200094FFF7FCFB0022802170
:103490003046FFF72BFC2846F8BD000009490A68B2
:1034A0000949CA6100BF824205D3084B9A4202D241
:1034B00010460A6200E008620549086062B6FEF73D
:1034C000FFBE0000003700082000002000000208B6
:1034D00008ED00E030B5027800230121541E04E01D
:1034E000455C491C2B449BB289B2A142F8DB921E79
:1034F00002704218405C527802EB0020984201D1E1
:10350000012030BD002030BD2DE9F0411F46DDE92E
:103510000645034605F1090020706078002620F07A
:103520000700001D20F0E0006070A078012920F065
:10353000F00040EA0110A07003D0032901D0042953
:1035400000D1E2702DB12A46194604F10800FCF7BB
:10355000ABFE38686060012005F1080104E0225CE0
:10356000401C324496B2C0B28842F8D3310A601986
:1035700001724672BDE8F0812DE9F0471746824698
:10358000C81999460D46C1F30F24CEB2B0F5003FDD
:1035900002D90120BDE8F087FDF7B2FA1B4940F2DD
:1035A000033008606EB91A48002101600AEB04215B
:1035B0004160012181601749FDF73AFA08B1032003
:1035C000E8E700241CE000BF09EB040019F8041030
:1035D000427801EB02218278C078120402EB00608D
:1035E00001440AEB0500061988460A4631460220C6
:1035F000FDF768FA3068804501D00420CAE7241D31
:10360000BC42E1D3FDF754FA0020C3E7183C024066
:10361000AC1200206400002000B585B0012102A892
:10362000CDE900010022064B11460648FFF76CFF6A
:103630009DF8081002A8FFF7F9FD05B000BD0000D5
:1036400004020020F4010020426F6F74202D2D2D04
:103650002D2D6D6F64652D2D2D636F756E742D2D61
:103660002D2D2D2D0000030406080C10182030000D
:103670000000000000000001020304060708090022
:10368000A0360008000000201802000030010008E9
:10369000E837000818020020181C00008C01000800
:1036A00001202296042202F4019019535049204629
:1036B0004C4153482055706772616465203A202D53
:1036C0002D2D25CE48E80101244914070201770178
:1036D000C9C38008131306111202125213051110E8
:1036E0000801036006110102570133081102041595
:1036F0000D111009130414430F12150911110510AF
:103700000A03B4D2D2B40B111207100F800108FFC4
:10371000FF08021011120C082A0113303023010691
:103720003A3F11C2142911C2209E0D1112092C1FFB
:103730001B200C842D070F42409A11100E0D05110D
:1037400020010CA70C112008180114080380100890
:1037500010200D1120092210084B06D3A006D40218
:10376000160B1120072C142386D42BD3A02D280B45
:1037700035E207112003381110100E2B40282E2897
:103780000B42A403D60301AA0180FF141A4CE12DB9
:1037900020014E400617510A1011210C280DFFC4BC
:1037A000307FF5B5B8DE0517160C11130C03231581
:1037B000FF491729114A181C49171508112204132B
:1037C0000814163D0B112307D00C34040B040770AA
:1037D000031011300C150C11400810093E0AAAAA5A
:0837E000444420FE022F010009
:04000005080000F5FA
:00000001FF
